{
  "_format": "hh3-artifact-1",
  "contractName": "Escrow",
  "sourceName": "contracts/Escrow.sol",
  "abi": [
    {
      "inputs": [
        {
          "internalType": "address",
          "name": "_feeRecipient",
          "type": "address"
        }
      ],
      "stateMutability": "nonpayable",
      "type": "constructor"
    },
    {
      "inputs": [],
      "name": "AccessControlBadConfirmation",
      "type": "error"
    },
    {
      "inputs": [
        {
          "internalType": "address",
          "name": "account",
          "type": "address"
        },
        {
          "internalType": "bytes32",
          "name": "neededRole",
          "type": "bytes32"
        }
      ],
      "name": "AccessControlUnauthorizedAccount",
      "type": "error"
    },
    {
      "inputs": [],
      "name": "EnforcedPause",
      "type": "error"
    },
    {
      "inputs": [],
      "name": "ExpectedPause",
      "type": "error"
    },
    {
      "inputs": [],
      "name": "ReentrancyGuardReentrantCall",
      "type": "error"
    },
    {
      "inputs": [
        {
          "internalType": "address",
          "name": "token",
          "type": "address"
        }
      ],
      "name": "SafeERC20FailedOperation",
      "type": "error"
    },
    {
      "anonymous": false,
      "inputs": [
        {
          "indexed": true,
          "internalType": "uint256",
          "name": "projectId",
          "type": "uint256"
        },
        {
          "indexed": true,
          "internalType": "uint256",
          "name": "milestoneId",
          "type": "uint256"
        },
        {
          "indexed": true,
          "internalType": "address",
          "name": "initiator",
          "type": "address"
        }
      ],
      "name": "DisputeRaised",
      "type": "event"
    },
    {
      "anonymous": false,
      "inputs": [
        {
          "indexed": true,
          "internalType": "uint256",
          "name": "projectId",
          "type": "uint256"
        },
        {
          "indexed": true,
          "internalType": "uint256",
          "name": "milestoneId",
          "type": "uint256"
        },
        {
          "indexed": false,
          "internalType": "bool",
          "name": "releasedToCreator",
          "type": "bool"
        }
      ],
      "name": "DisputeResolved",
      "type": "event"
    },
    {
      "anonymous": false,
      "inputs": [
        {
          "indexed": true,
          "internalType": "uint256",
          "name": "projectId",
          "type": "uint256"
        },
        {
          "indexed": true,
          "internalType": "address",
          "name": "initiator",
          "type": "address"
        }
      ],
      "name": "EmergencyWithdrawTriggered",
      "type": "event"
    },
    {
      "anonymous": false,
      "inputs": [
        {
          "indexed": true,
          "internalType": "uint256",
          "name": "projectId",
          "type": "uint256"
        },
        {
          "indexed": true,
          "internalType": "address",
          "name": "investor",
          "type": "address"
        },
        {
          "indexed": false,
          "internalType": "uint256",
          "name": "amount",
          "type": "uint256"
        },
        {
          "indexed": false,
          "internalType": "address",
          "name": "token",
          "type": "address"
        }
      ],
      "name": "FundsDeposited",
      "type": "event"
    },
    {
      "anonymous": false,
      "inputs": [
        {
          "indexed": true,
          "internalType": "uint256",
          "name": "projectId",
          "type": "uint256"
        },
        {
          "indexed": true,
          "internalType": "address",
          "name": "investor",
          "type": "address"
        },
        {
          "indexed": false,
          "internalType": "uint256",
          "name": "amount",
          "type": "uint256"
        }
      ],
      "name": "FundsRefunded",
      "type": "event"
    },
    {
      "anonymous": false,
      "inputs": [
        {
          "indexed": true,
          "internalType": "uint256",
          "name": "projectId",
          "type": "uint256"
        },
        {
          "indexed": true,
          "internalType": "uint256",
          "name": "milestoneId",
          "type": "uint256"
        },
        {
          "indexed": false,
          "internalType": "uint256",
          "name": "amount",
          "type": "uint256"
        },
        {
          "indexed": false,
          "internalType": "address",
          "name": "recipient",
          "type": "address"
        }
      ],
      "name": "FundsReleased",
      "type": "event"
    },
    {
      "anonymous": false,
      "inputs": [
        {
          "indexed": true,
          "internalType": "uint256",
          "name": "projectId",
          "type": "uint256"
        },
        {
          "indexed": true,
          "internalType": "uint256",
          "name": "milestoneId",
          "type": "uint256"
        },
        {
          "indexed": true,
          "internalType": "address",
          "name": "validator",
          "type": "address"
        }
      ],
      "name": "MilestoneApproved",
      "type": "event"
    },
    {
      "anonymous": false,
      "inputs": [
        {
          "indexed": true,
          "internalType": "uint256",
          "name": "projectId",
          "type": "uint256"
        },
        {
          "indexed": true,
          "internalType": "uint256",
          "name": "milestoneId",
          "type": "uint256"
        },
        {
          "indexed": false,
          "internalType": "uint256",
          "name": "amount",
          "type": "uint256"
        },
        {
          "indexed": false,
          "internalType": "uint256",
          "name": "dueDate",
          "type": "uint256"
        }
      ],
      "name": "MilestoneCreated",
      "type": "event"
    },
    {
      "anonymous": false,
      "inputs": [
        {
          "indexed": true,
          "internalType": "uint256",
          "name": "projectId",
          "type": "uint256"
        },
        {
          "indexed": true,
          "internalType": "uint256",
          "name": "milestoneId",
          "type": "uint256"
        },
        {
          "indexed": false,
          "internalType": "string",
          "name": "evidenceURI",
          "type": "string"
        },
        {
          "indexed": false,
          "internalType": "uint256",
          "name": "timestamp",
          "type": "uint256"
        }
      ],
      "name": "MilestoneSubmitted",
      "type": "event"
    },
    {
      "anonymous": false,
      "inputs": [
        {
          "indexed": false,
          "internalType": "address",
          "name": "account",
          "type": "address"
        }
      ],
      "name": "Paused",
      "type": "event"
    },
    {
      "anonymous": false,
      "inputs": [
        {
          "indexed": true,
          "internalType": "uint256",
          "name": "projectId",
          "type": "uint256"
        },
        {
          "indexed": true,
          "internalType": "address",
          "name": "creator",
          "type": "address"
        },
        {
          "indexed": false,
          "internalType": "string",
          "name": "title",
          "type": "string"
        },
        {
          "indexed": false,
          "internalType": "uint256",
          "name": "targetAmount",
          "type": "uint256"
        }
      ],
      "name": "ProjectCreated",
      "type": "event"
    },
    {
      "anonymous": false,
      "inputs": [
        {
          "indexed": true,
          "internalType": "uint256",
          "name": "projectId",
          "type": "uint256"
        },
        {
          "indexed": false,
          "internalType": "enum Escrow.ProjectStatus",
          "name": "status",
          "type": "uint8"
        }
      ],
      "name": "ProjectStatusChanged",
      "type": "event"
    },
    {
      "anonymous": false,
      "inputs": [
        {
          "indexed": true,
          "internalType": "bytes32",
          "name": "role",
          "type": "bytes32"
        },
        {
          "indexed": true,
          "internalType": "bytes32",
          "name": "previousAdminRole",
          "type": "bytes32"
        },
        {
          "indexed": true,
          "internalType": "bytes32",
          "name": "newAdminRole",
          "type": "bytes32"
        }
      ],
      "name": "RoleAdminChanged",
      "type": "event"
    },
    {
      "anonymous": false,
      "inputs": [
        {
          "indexed": true,
          "internalType": "bytes32",
          "name": "role",
          "type": "bytes32"
        },
        {
          "indexed": true,
          "internalType": "address",
          "name": "account",
          "type": "address"
        },
        {
          "indexed": true,
          "internalType": "address",
          "name": "sender",
          "type": "address"
        }
      ],
      "name": "RoleGranted",
      "type": "event"
    },
    {
      "anonymous": false,
      "inputs": [
        {
          "indexed": true,
          "internalType": "bytes32",
          "name": "role",
          "type": "bytes32"
        },
        {
          "indexed": true,
          "internalType": "address",
          "name": "account",
          "type": "address"
        },
        {
          "indexed": true,
          "internalType": "address",
          "name": "sender",
          "type": "address"
        }
      ],
      "name": "RoleRevoked",
      "type": "event"
    },
    {
      "anonymous": false,
      "inputs": [
        {
          "indexed": false,
          "internalType": "address",
          "name": "account",
          "type": "address"
        }
      ],
      "name": "Unpaused",
      "type": "event"
    },
    {
      "inputs": [],
      "name": "DEFAULT_ADMIN_ROLE",
      "outputs": [
        {
          "internalType": "bytes32",
          "name": "",
          "type": "bytes32"
        }
      ],
      "stateMutability": "view",
      "type": "function"
    },
    {
      "inputs": [],
      "name": "MAX_PROJECT_DURATION",
      "outputs": [
        {
          "internalType": "uint256",
          "name": "",
          "type": "uint256"
        }
      ],
      "stateMutability": "view",
      "type": "function"
    },
    {
      "inputs": [],
      "name": "MIN_MILESTONE_DURATION",
      "outputs": [
        {
          "internalType": "uint256",
          "name": "",
          "type": "uint256"
        }
      ],
      "stateMutability": "view",
      "type": "function"
    },
    {
      "inputs": [],
      "name": "PROJECT_CREATOR_ROLE",
      "outputs": [
        {
          "internalType": "bytes32",
          "name": "",
          "type": "bytes32"
        }
      ],
      "stateMutability": "view",
      "type": "function"
    },
    {
      "inputs": [],
      "name": "RESOLVER_ROLE",
      "outputs": [
        {
          "internalType": "bytes32",
          "name": "",
          "type": "bytes32"
        }
      ],
      "stateMutability": "view",
      "type": "function"
    },
    {
      "inputs": [],
      "name": "VALIDATOR_ROLE",
      "outputs": [
        {
          "internalType": "bytes32",
          "name": "",
          "type": "bytes32"
        }
      ],
      "stateMutability": "view",
      "type": "function"
    },
    {
      "inputs": [
        {
          "internalType": "uint256",
          "name": "_projectId",
          "type": "uint256"
        },
        {
          "internalType": "uint256",
          "name": "_milestoneId",
          "type": "uint256"
        }
      ],
      "name": "approveMilestone",
      "outputs": [],
      "stateMutability": "nonpayable",
      "type": "function"
    },
    {
      "inputs": [
        {
          "internalType": "uint256",
          "name": "_projectId",
          "type": "uint256"
        },
        {
          "internalType": "uint256",
          "name": "_amount",
          "type": "uint256"
        },
        {
          "internalType": "uint256",
          "name": "_dueDate",
          "type": "uint256"
        },
        {
          "internalType": "string",
          "name": "_title",
          "type": "string"
        },
        {
          "internalType": "string",
          "name": "_description",
          "type": "string"
        },
        {
          "internalType": "uint256",
          "name": "_requiredApprovals",
          "type": "uint256"
        }
      ],
      "name": "createMilestone",
      "outputs": [],
      "stateMutability": "nonpayable",
      "type": "function"
    },
    {
      "inputs": [
        {
          "internalType": "string",
          "name": "_title",
          "type": "string"
        },
        {
          "internalType": "string",
          "name": "_description",
          "type": "string"
        },
        {
          "internalType": "uint256",
          "name": "_targetAmount",
          "type": "uint256"
        },
        {
          "internalType": "uint256",
          "name": "_deadline",
          "type": "uint256"
        },
        {
          "internalType": "address",
          "name": "_token",
          "type": "address"
        }
      ],
      "name": "createProject",
      "outputs": [
        {
          "internalType": "uint256",
          "name": "",
          "type": "uint256"
        }
      ],
      "stateMutability": "nonpayable",
      "type": "function"
    },
    {
      "inputs": [
        {
          "internalType": "uint256",
          "name": "_projectId",
          "type": "uint256"
        },
        {
          "internalType": "uint256",
          "name": "_amount",
          "type": "uint256"
        }
      ],
      "name": "deposit",
      "outputs": [],
      "stateMutability": "payable",
      "type": "function"
    },
    {
      "inputs": [
        {
          "internalType": "uint256",
          "name": "_projectId",
          "type": "uint256"
        }
      ],
      "name": "emergencyWithdraw",
      "outputs": [],
      "stateMutability": "nonpayable",
      "type": "function"
    },
    {
      "inputs": [],
      "name": "feeRecipient",
      "outputs": [
        {
          "internalType": "address",
          "name": "",
          "type": "address"
        }
      ],
      "stateMutability": "view",
      "type": "function"
    },
    {
      "inputs": [
        {
          "internalType": "uint256",
          "name": "_projectId",
          "type": "uint256"
        },
        {
          "internalType": "uint256",
          "name": "_milestoneId",
          "type": "uint256"
        }
      ],
      "name": "getMilestone",
      "outputs": [
        {
          "internalType": "uint256",
          "name": "amount",
          "type": "uint256"
        },
        {
          "internalType": "uint256",
          "name": "dueDate",
          "type": "uint256"
        },
        {
          "internalType": "string",
          "name": "title",
          "type": "string"
        },
        {
          "internalType": "string",
          "name": "evidenceURI",
          "type": "string"
        },
        {
          "internalType": "enum Escrow.MilestoneStatus",
          "name": "status",
          "type": "uint8"
        },
        {
          "internalType": "uint256",
          "name": "approvalsCount",
          "type": "uint256"
        },
        {
          "internalType": "uint256",
          "name": "requiredApprovals",
          "type": "uint256"
        }
      ],
      "stateMutability": "view",
      "type": "function"
    },
    {
      "inputs": [
        {
          "internalType": "uint256",
          "name": "_projectId",
          "type": "uint256"
        }
      ],
      "name": "getProject",
      "outputs": [
        {
          "internalType": "address",
          "name": "creator",
          "type": "address"
        },
        {
          "internalType": "string",
          "name": "title",
          "type": "string"
        },
        {
          "internalType": "string",
          "name": "description",
          "type": "string"
        },
        {
          "internalType": "uint256",
          "name": "targetAmount",
          "type": "uint256"
        },
        {
          "internalType": "uint256",
          "name": "raisedAmount",
          "type": "uint256"
        },
        {
          "internalType": "uint256",
          "name": "deadline",
          "type": "uint256"
        },
        {
          "internalType": "enum Escrow.ProjectStatus",
          "name": "status",
          "type": "uint8"
        }
      ],
      "stateMutability": "view",
      "type": "function"
    },
    {
      "inputs": [
        {
          "internalType": "bytes32",
          "name": "role",
          "type": "bytes32"
        }
      ],
      "name": "getRoleAdmin",
      "outputs": [
        {
          "internalType": "bytes32",
          "name": "",
          "type": "bytes32"
        }
      ],
      "stateMutability": "view",
      "type": "function"
    },
    {
      "inputs": [
        {
          "internalType": "uint256",
          "name": "_projectId",
          "type": "uint256"
        },
        {
          "internalType": "address",
          "name": "_user",
          "type": "address"
        }
      ],
      "name": "getUserInvestment",
      "outputs": [
        {
          "internalType": "uint256",
          "name": "amount",
          "type": "uint256"
        },
        {
          "internalType": "uint256",
          "name": "timestamp",
          "type": "uint256"
        },
        {
          "internalType": "bool",
          "name": "refunded",
          "type": "bool"
        }
      ],
      "stateMutability": "view",
      "type": "function"
    },
    {
      "inputs": [
        {
          "internalType": "bytes32",
          "name": "role",
          "type": "bytes32"
        },
        {
          "internalType": "address",
          "name": "account",
          "type": "address"
        }
      ],
      "name": "grantRole",
      "outputs": [],
      "stateMutability": "nonpayable",
      "type": "function"
    },
    {
      "inputs": [
        {
          "internalType": "bytes32",
          "name": "role",
          "type": "bytes32"
        },
        {
          "internalType": "address",
          "name": "account",
          "type": "address"
        }
      ],
      "name": "hasRole",
      "outputs": [
        {
          "internalType": "bool",
          "name": "",
          "type": "bool"
        }
      ],
      "stateMutability": "view",
      "type": "function"
    },
    {
      "inputs": [
        {
          "internalType": "uint256",
          "name": "",
          "type": "uint256"
        },
        {
          "internalType": "address",
          "name": "",
          "type": "address"
        }
      ],
      "name": "investments",
      "outputs": [
        {
          "internalType": "uint256",
          "name": "amount",
          "type": "uint256"
        },
        {
          "internalType": "uint256",
          "name": "timestamp",
          "type": "uint256"
        },
        {
          "internalType": "bool",
          "name": "refunded",
          "type": "bool"
        },
        {
          "internalType": "uint256",
          "name": "milestoneContributions",
          "type": "uint256"
        }
      ],
      "stateMutability": "view",
      "type": "function"
    },
    {
      "inputs": [],
      "name": "pause",
      "outputs": [],
      "stateMutability": "nonpayable",
      "type": "function"
    },
    {
      "inputs": [],
      "name": "paused",
      "outputs": [
        {
          "internalType": "bool",
          "name": "",
          "type": "bool"
        }
      ],
      "stateMutability": "view",
      "type": "function"
    },
    {
      "inputs": [],
      "name": "platformFeePercentage",
      "outputs": [
        {
          "internalType": "uint256",
          "name": "",
          "type": "uint256"
        }
      ],
      "stateMutability": "view",
      "type": "function"
    },
    {
      "inputs": [],
      "name": "projectCounter",
      "outputs": [
        {
          "internalType": "uint256",
          "name": "",
          "type": "uint256"
        }
      ],
      "stateMutability": "view",
      "type": "function"
    },
    {
      "inputs": [
        {
          "internalType": "uint256",
          "name": "",
          "type": "uint256"
        },
        {
          "internalType": "uint256",
          "name": "",
          "type": "uint256"
        }
      ],
      "name": "projectInvestors",
      "outputs": [
        {
          "internalType": "address",
          "name": "",
          "type": "address"
        }
      ],
      "stateMutability": "view",
      "type": "function"
    },
    {
      "inputs": [
        {
          "internalType": "uint256",
          "name": "",
          "type": "uint256"
        },
        {
          "internalType": "uint256",
          "name": "",
          "type": "uint256"
        }
      ],
      "name": "projectMilestones",
      "outputs": [
        {
          "internalType": "uint256",
          "name": "amount",
          "type": "uint256"
        },
        {
          "internalType": "uint256",
          "name": "dueDate",
          "type": "uint256"
        },
        {
          "internalType": "string",
          "name": "title",
          "type": "string"
        },
        {
          "internalType": "string",
          "name": "description",
          "type": "string"
        },
        {
          "internalType": "string",
          "name": "evidenceURI",
          "type": "string"
        },
        {
          "internalType": "address",
          "name": "creator",
          "type": "address"
        },
        {
          "internalType": "enum Escrow.MilestoneStatus",
          "name": "status",
          "type": "uint8"
        },
        {
          "internalType": "enum Escrow.DisputeStatus",
          "name": "disputeStatus",
          "type": "uint8"
        },
        {
          "internalType": "uint256",
          "name": "submissionDate",
          "type": "uint256"
        },
        {
          "internalType": "uint256",
          "name": "approvalDate",
          "type": "uint256"
        },
        {
          "internalType": "uint256",
          "name": "approvalsCount",
          "type": "uint256"
        },
        {
          "internalType": "uint256",
          "name": "requiredApprovals",
          "type": "uint256"
        }
      ],
      "stateMutability": "view",
      "type": "function"
    },
    {
      "inputs": [
        {
          "internalType": "uint256",
          "name": "",
          "type": "uint256"
        }
      ],
      "name": "projects",
      "outputs": [
        {
          "internalType": "address",
          "name": "creator",
          "type": "address"
        },
        {
          "internalType": "string",
          "name": "title",
          "type": "string"
        },
        {
          "internalType": "string",
          "name": "description",
          "type": "string"
        },
        {
          "internalType": "uint256",
          "name": "targetAmount",
          "type": "uint256"
        },
        {
          "internalType": "uint256",
          "name": "raisedAmount",
          "type": "uint256"
        },
        {
          "internalType": "uint256",
          "name": "creationDate",
          "type": "uint256"
        },
        {
          "internalType": "uint256",
          "name": "deadline",
          "type": "uint256"
        },
        {
          "internalType": "enum Escrow.ProjectStatus",
          "name": "status",
          "type": "uint8"
        },
        {
          "internalType": "contract IERC20",
          "name": "token",
          "type": "address"
        },
        {
          "internalType": "uint256",
          "name": "totalMilestones",
          "type": "uint256"
        },
        {
          "internalType": "uint256",
          "name": "completedMilestones",
          "type": "uint256"
        },
        {
          "internalType": "bool",
          "name": "emergencyWithdrawEnabled",
          "type": "bool"
        }
      ],
      "stateMutability": "view",
      "type": "function"
    },
    {
      "inputs": [
        {
          "internalType": "uint256",
          "name": "_projectId",
          "type": "uint256"
        },
        {
          "internalType": "uint256",
          "name": "_milestoneId",
          "type": "uint256"
        },
        {
          "internalType": "string",
          "name": "",
          "type": "string"
        }
      ],
      "name": "raiseDispute",
      "outputs": [],
      "stateMutability": "nonpayable",
      "type": "function"
    },
    {
      "inputs": [
        {
          "internalType": "bytes32",
          "name": "role",
          "type": "bytes32"
        },
        {
          "internalType": "address",
          "name": "callerConfirmation",
          "type": "address"
        }
      ],
      "name": "renounceRole",
      "outputs": [],
      "stateMutability": "nonpayable",
      "type": "function"
    },
    {
      "inputs": [
        {
          "internalType": "uint256",
          "name": "_projectId",
          "type": "uint256"
        },
        {
          "internalType": "uint256",
          "name": "_milestoneId",
          "type": "uint256"
        },
        {
          "internalType": "bool",
          "name": "_releaseToCreator",
          "type": "bool"
        }
      ],
      "name": "resolveDispute",
      "outputs": [],
      "stateMutability": "nonpayable",
      "type": "function"
    },
    {
      "inputs": [
        {
          "internalType": "bytes32",
          "name": "role",
          "type": "bytes32"
        },
        {
          "internalType": "address",
          "name": "account",
          "type": "address"
        }
      ],
      "name": "revokeRole",
      "outputs": [],
      "stateMutability": "nonpayable",
      "type": "function"
    },
    {
      "inputs": [
        {
          "internalType": "address",
          "name": "_feeRecipient",
          "type": "address"
        }
      ],
      "name": "setFeeRecipient",
      "outputs": [],
      "stateMutability": "nonpayable",
      "type": "function"
    },
    {
      "inputs": [
        {
          "internalType": "uint256",
          "name": "_feePercentage",
          "type": "uint256"
        }
      ],
      "name": "setPlatformFee",
      "outputs": [],
      "stateMutability": "nonpayable",
      "type": "function"
    },
    {
      "inputs": [
        {
          "internalType": "uint256",
          "name": "_projectId",
          "type": "uint256"
        },
        {
          "internalType": "uint256",
          "name": "_milestoneId",
          "type": "uint256"
        },
        {
          "internalType": "string",
          "name": "_evidenceURI",
          "type": "string"
        }
      ],
      "name": "submitMilestone",
      "outputs": [],
      "stateMutability": "nonpayable",
      "type": "function"
    },
    {
      "inputs": [
        {
          "internalType": "bytes4",
          "name": "interfaceId",
          "type": "bytes4"
        }
      ],
      "name": "supportsInterface",
      "outputs": [
        {
          "internalType": "bool",
          "name": "",
          "type": "bool"
        }
      ],
      "stateMutability": "view",
      "type": "function"
    },
    {
      "inputs": [
        {
          "internalType": "uint256",
          "name": "",
          "type": "uint256"
        }
      ],
      "name": "totalLockedFunds",
      "outputs": [
        {
          "internalType": "uint256",
          "name": "",
          "type": "uint256"
        }
      ],
      "stateMutability": "view",
      "type": "function"
    },
    {
      "inputs": [
        {
          "internalType": "uint256",
          "name": "_projectId",
          "type": "uint256"
        }
      ],
      "name": "triggerEmergencyWithdraw",
      "outputs": [],
      "stateMutability": "nonpayable",
      "type": "function"
    },
    {
      "inputs": [],
      "name": "unpause",
      "outputs": [],
      "stateMutability": "nonpayable",
      "type": "function"
    },
    {
      "inputs": [
        {
          "internalType": "address",
          "name": "",
          "type": "address"
        },
        {
          "internalType": "uint256",
          "name": "",
          "type": "uint256"
        }
      ],
      "name": "userProjects",
      "outputs": [
        {
          "internalType": "uint256",
          "name": "",
          "type": "uint256"
        }
      ],
      "stateMutability": "view",
      "type": "function"
    },
    {
      "stateMutability": "payable",
      "type": "receive"
    }
  ],
  "bytecode": "0x6080346100e757601f61308038819003918201601f19168301916001600160401b038311848410176100ec578084926020946040528339810103126100e757516001600160a01b038116908190036100e757600160005560fa600a5580156100a25761006a33610102565b506100743361017e565b5061007e3361023a565b50600b80546001600160a01b031916919091179055604051612d4d90816102d38239f35b60405162461bcd60e51b815260206004820152601560248201527f496e76616c69642066656520726563697069656e7400000000000000000000006044820152606490fd5b600080fd5b634e487b7160e01b600052604160045260246000fd5b6001600160a01b0381166000908152600080516020613040833981519152602052604090205460ff16610178576001600160a01b0316600081815260008051602061304083398151915260205260408120805460ff191660011790553391906000805160206130208339815191528180a4600190565b50600090565b6001600160a01b03811660009081527f75e26f58cca2d71dbbeeec7adfb8d72df51164003ce85ac5b2d9b2a24a398706602052604090205460ff16610178576001600160a01b031660008181527f75e26f58cca2d71dbbeeec7adfb8d72df51164003ce85ac5b2d9b2a24a39870660205260408120805460ff191660011790553391907f92a19c77d2ea87c7f81d50c74403cb2f401780f3ad919571121efe2bdb427eb1906000805160206130208339815191529080a4600190565b6001600160a01b0381166000908152600080516020613060833981519152602052604090205460ff16610178576001600160a01b0316600081815260008051602061306083398151915260205260408120805460ff191660011790553391907f21702c8af46127c7fa207f89d0b0a8441bb32959a0ac7df790e9ab1a25c98926906000805160206130208339815191529080a460019056fe608080604052600436101561001d575b50361561001b57600080fd5b005b60003560e01c90816301ffc9a7146123f7575080630390e07a14612139578063107046bd1461204457806312e8e2c314611fe657806320913da514611dd857806323c1a61c14611d9d578063248a9ca314611d685780632c3b25bb14611d495780632f2ff15d14611d095780632fa9c00714611cb057806336568abe14611c6a57806336c47f5f146118c857806336e9a24c1461182d5780633f4ba83a146117c4578063469048401461179b5780635312ea8e146116145780635c975abb146115f15780635e2bb99b146115c55780636685d496146111165780636cb0adba1461100357806378fab26014610fc85780638456cb5914610f6e5780638b44da9514610f245780638ed9895c14610e7657806391d1485414610e29578063a217fddf14610e0d578063b11b32d214610da0578063b831053b146108ad578063c290dd7114610722578063c49baebe146106e7578063cdd78cfc146106c9578063d547741f14610684578063e2bbb1581461039d578063e74b981b14610319578063f0f3f2c81461026f578063f4ab943d14610251578063f7063e8b146101ef5763f8a518ed146101cc573861000f565b346101ea5760003660031901126101ea576020600954604051908152f35b600080fd5b346101ea5760403660031901126101ea576060604061020c612638565b60043560005260056020528160002060009160018060a01b031682526020522080549060ff600260018301549201541690604051928352602083015215156040820152f35b346101ea5760003660031901126101ea57602060405162093a808152f35b346101ea5760203660031901126101ea576004356000526003602052604060002060018060a01b0381541660038201546004830154600684015460ff600786015416916102f76102cd60026102c660018a01612533565b9801612533565b6102e9604051988998895260e060208a015260e08901906125d7565b9087820360408901526125d7565b936060860152608085015260a084015261031081612618565b60c08301520390f35b346101ea5760203660031901126101ea5761033261264e565b61033a6127b1565b6001600160a01b03168015610366576bffffffffffffffffffffffff60a01b600b541617600b55600080f35b60405162461bcd60e51b815260206004820152600f60248201526e496e76616c6964206164647265737360881b6044820152606490fd5b6103a636612622565b6103ae612c5f565b6103b6612794565b8160005260036020526040600020600781019182546103e160ff82166103db81612618565b15612714565b600683015442101561063f5760081c6001600160a01b031690816105b557340361057a5734905b60008581526005602090815260408083203384529091529020805490929015610515575b8261043a8260039554612707565b8155600142910155857f5cb66c5a1efb509ef63d967a7100ae36ef16b537f0b8cd28079d162d23c1063c6104c36004870194610477858754612707565b865583600052600760205261049185604060002054612707565b8460005260076020526040600020556040519182913396839092916020906040830194835260018060a01b0316910152565b0390a35491015411156104d8575b6001600055005b600160ff198254161790557f35872be4c2085eaf9ca9a10d056eefec79968f825846792411ede75f331e9392602060405160018152a280806104d1565b856000526006602052604060002092835493600160401b8510156105645784610545916001600397018155612664565b815490861b9033821b9160018060a01b03901b1916179055925061042c565b634e487b7160e01b600052604160045260246000fd5b60405162461bcd60e51b815260206004820152601360248201527208aa89040c2dadeeadce840dad2e6dac2e8c6d606b1b6044820152606490fd5b346105fa576105f46040516323b872dd60e01b6020820152336024820152306044820152826064820152606481526105ee60848261244a565b83612cbc565b90610408565b60405162461bcd60e51b815260206004820152601960248201527f4e6f2045544820666f7220746f6b656e206465706f73697473000000000000006044820152606490fd5b60405162461bcd60e51b815260206004820152601760248201527f50726f6a65637420646561646c696e65207061737365640000000000000000006044820152606490fd5b346101ea5760403660031901126101ea5761001b6004356106a3612638565b906106c46106bf82600052600160205260016040600020015490565b612804565b612bd9565b346101ea5760003660031901126101ea576020600a54604051908152f35b346101ea5760003660031901126101ea5760206040517f21702c8af46127c7fa207f89d0b0a8441bb32959a0ac7df790e9ab1a25c989268152f35b346101ea57610730366124c3565b50610739612794565b600082815260056020908152604080832033845290915290205415801590610875575b1561083f578160005260046020526040600020816000526020526005604060002001805460ff8160a01c16600681101561082957600461079d911415612755565b60ff8160a81c166107ad81612618565b6107eb5761ffff60a01b191661010360a01b17905533917f83201991c75b30e493678d0543bdbd02d6a194a5a0dda31490a5fe09e9f0a220600080a4005b60405162461bcd60e51b8152602060048201526016602482015275111a5cdc1d5d1948185b1c9958591e481c985a5cd95960521b6044820152606490fd5b634e487b7160e01b600052602160045260246000fd5b60405162461bcd60e51b815260206004820152600e60248201526d139bdd08185d5d1a1bdc9a5e995960921b6044820152606490fd5b503360009081527f54fa744d02e0cd6feb2b438b7701c241f85ef8aa84993c058c9ed46b60f00edc602052604090205460ff1661075c565b346101ea5760c03660031901126101ea5760443560043560243560643567ffffffffffffffff81116101ea576108e790369060040161246c565b9260843567ffffffffffffffff81116101ea5761090890369060040161246c565b9360a43590610915612794565b84600052600360205260018060a01b036040600020541633148015610d68575b15610d34578315610cfe5762093a804201804211610ce857831115610caf57610960815115156126ca565b8115610c6a578460005260036020526008604060002061098a60ff6007830154166103db81612618565b0195865496610998886126bb565b9055856000526004602052604060002087600052602052604060002091858355846001840155600283019080519067ffffffffffffffff82116105645781906109e184546124f9565b601f8111610c17575b50602090601f8311600114610bb257600092610ba7575b50508160011b916000199060031b1c19161790555b8051600383019167ffffffffffffffff821161056457610a3683546124f9565b601f8111610b5f575b50602090601f8311600114610ace579282600a9360409896937fdd9c8b628c5ee6e97f53a818750c89e0ff818c9250075b01cb58b42d998589439a9896600092610ac3575b50508160011b916000199060031b1c19161790555b6005810180546001600160a81b0319163360ff60a01b1916179055015582519182526020820152a3005b015190508c80610a84565b90601f1983169184600052816000209260005b818110610b4757509360409896937fdd9c8b628c5ee6e97f53a818750c89e0ff818c9250075b01cb58b42d998589439a98969360019383600a9810610b2e575b505050811b019055610a99565b015160001960f88460031b161c191690558c8080610b21565b92936020600181928786015181550195019301610ae1565b836000526020600020601f840160051c81019160208510610b9d575b601f0160051c01905b818110610b915750610a3f565b60008155600101610b84565b9091508190610b7b565b015190508a80610a01565b60008581528281209350601f198516905b818110610bff5750908460019594939210610be6575b505050811b019055610a16565b015160001960f88460031b161c191690558a8080610bd9565b92936020600181928786015181550195019301610bc3565b909150836000526020600020601f840160051c81019160208510610c60575b90601f859493920160051c01905b818110610c5157506109ea565b60008155849350600101610c44565b9091508190610c36565b60405162461bcd60e51b815260206004820152601860248201527f4e656564206174206c65617374203120617070726f76616c00000000000000006044820152606490fd5b60405162461bcd60e51b8152602060048201526011602482015270223ab2903230ba32903a37b79039b7b7b760791b6044820152606490fd5b634e487b7160e01b600052601160045260246000fd5b60405162461bcd60e51b815260206004820152600e60248201526d125b9d985b1a5908185b5bdd5b9d60921b6044820152606490fd5b60405162461bcd60e51b815260206004820152600c60248201526b155b985d5d1a1bdc9a5e995960a21b6044820152606490fd5b503360009081527fa6eef7e35abe7026729641147f7915573c7e97b47efa546f5f6e3230263bcb49602052604090205460ff16610935565b346101ea5760403660031901126101ea5760806040610dbd612638565b60043560005260056020528160002060009160018060a01b0316825260205220805490600181015490600360ff600283015416910154916040519384526020840152151560408301526060820152f35b346101ea5760003660031901126101ea57602060405160008152f35b346101ea5760403660031901126101ea57610e42612638565b600435600052600160205260406000209060018060a01b0316600052602052602060ff604060002054166040519015158152f35b346101ea57610e8436612622565b9060005260046020526040600020906000526020526040600020805460018201549160ff600582015460a01c16906009810154610f16610f0b600a84015493610efd610ede6004610ed760028501612533565b9301612533565b91604051998a998a5260208a015260e060408a015260e08901906125d7565b9087820360608901526125d7565b936080860190612692565b60a084015260c08301520390f35b346101ea57610f3236612622565b906000526006602052604060002080548210156101ea57602091610f5591612664565b905460405160039290921b1c6001600160a01b03168152f35b346101ea5760003660031901126101ea57610f876127b1565b610f8f612794565b600160ff1960025416176002557f62e78cea01bee320cd4e420270b5ea74000d11b0c9f74754ebdbfc544b05a2586020604051338152a1005b346101ea5760003660031901126101ea5760206040517f92a19c77d2ea87c7f81d50c74403cb2f401780f3ad919571121efe2bdb427eb18152f35b346101ea5761101136612622565b906000526004602052604060002090600052602052604060002080546001820154916002810161104090612533565b61104c60038301612533565b9161105960048201612533565b926005820154938460a81c60ff16600684015491600785015493600986015495600a0154966040519a8b9a8b5260208b015260408a0161018090526101808a016110a2916125d7565b89810360608b01526110b3916125d7565b88810360808a01526110c4916125d7565b6001600160a01b03871660a08981019190915290966110ec9160c08a019160ff911c16612692565b6110f581612618565b60e08701526101008601526101208501526101408401526101608301520390f35b346101ea5760a03660031901126101ea5760043567ffffffffffffffff81116101ea5761114790369060040161246c565b60243567ffffffffffffffff81116101ea5761116790369060040161246c565b6044359160643591608435906001600160a01b03821682036101ea5761118b612794565b611197835115156126ca565b80511561158957841561154c5742841115611514576301e133804201804211610ce85784116114dc57600954936111cd856126bb565b600955600085815260036020526040902080546001600160a01b031916331781558451909290600184019067ffffffffffffffff81116105645761121182546124f9565b601f8111611494575b50806020601f821160011461142f57600091611424575b508160011b916000199060031b1c19161790555b8051600284019167ffffffffffffffff82116105645761126583546124f9565b601f81116113dc575b50602090601f8311600114611370576007959493929160009183611365575b50508160011b916000199060031b1c19161790555b6003820187905542600583015560068201550180546001600160a81b03191660089290921b610100600160a81b03169190911790556112e033612a76565b50336000526008602052604060002092835493600160401b8510156105645761135a8492611337877f51d08cb6cfa640a387210fb69df925dfb70169ae7373f8ecd40b977b0c800d9a94600160209a018155612664565b81549060031b9086821b91600019901b191617905560405191829133968361269f565b0390a3604051908152f35b015190508a8061128d565b90601f1983169184600052816000209260005b8181106113c4575091600193918560079998979694106113ab575b505050811b0190556112a2565b015160001960f88460031b161c191690558a808061139e565b92936020600181928786015181550195019301611383565b836000526020600020601f840160051c8101916020851061141a575b601f0160051c01905b81811061140e575061126e565b60008155600101611401565b90915081906113f8565b90508701518a611231565b60008481528181209250601f198416905b8a82821061147c5750509083600194939210611463575b5050811b019055611245565b89015160001960f88460031b161c191690558a80611457565b60018495602093958493015181550194019201611440565b826000526020600020601f830160051c810191602084106114d2575b601f0160051c01905b8181106114c6575061121a565b600081556001016114b9565b90915081906114b0565b60405162461bcd60e51b815260206004820152601060248201526f2232b0b23634b732903a37b7903330b960811b6044820152606490fd5b60405162461bcd60e51b815260206004820152601060248201526f496e76616c696420646561646c696e6560801b6044820152606490fd5b60405162461bcd60e51b8152602060048201526015602482015274125b9d985b1a59081d185c99d95d08185b5bdd5b9d605a1b6044820152606490fd5b60405162461bcd60e51b815260206004820152601460248201527311195cd8dc9a5c1d1a5bdb881c995c5d5a5c995960621b6044820152606490fd5b346101ea5760203660031901126101ea5760043560005260076020526020604060002054604051908152f35b346101ea5760003660031901126101ea57602060ff600254166040519015158152f35b346101ea5760203660031901126101ea57600435611630612c5f565b80600052600360205260406000209060ff600a83015416156117575760008181526005602090815260408083203384529091529020600281018054939160ff8516158061174d575b15611712575460ff1990941660011790556007015460081c6001600160a01b03168281611702579050600081156116f9575b600080809381933390f1156116ed575b6040519182527f80b577b4fc190ab86d963549e29f496afd079c5d81a2480d61217d4b5060a28c60203393a36001600055005b6040513d6000823e3d90fd5b506108fc6116aa565b61170d913390612c81565b6116ba565b60405162461bcd60e51b81526020600482015260136024820152724e6f7468696e6720746f20776974686472617760681b6044820152606490fd5b5080541515611678565b606460405162461bcd60e51b815260206004820152602060248201527f456d657267656e6379207769746864726177616c206e6f7420656e61626c65646044820152fd5b346101ea5760003660031901126101ea57600b546040516001600160a01b039091168152602090f35b346101ea5760003660031901126101ea576117dd6127b1565b60025460ff81161561181c5760ff19166002557f5db9ee0a495bf2e6ff9c91a7834c1ba4fdd244a5e8aa4e537bd38aeae4b073aa6020604051338152a1005b638dfc202b60e01b60005260046000fd5b346101ea5760203660031901126101ea576004356118496127b1565b80600052600360205260076040600020600a8101600160ff1982541617905501600260ff198254161790557f35872be4c2085eaf9ca9a10d056eefec79968f825846792411ede75f331e9392602060405133847f6792645c831f8c5a9de52b9049e891192891887d38c503aacee4a5f681c258a0600080a360028152a2005b346101ea5760603660031901126101ea57602435600435604435801515908181036101ea573360009081527f75e26f58cca2d71dbbeeec7adfb8d72df51164003ce85ac5b2d9b2a24a398706602052604090205460ff1615611c315761192c612794565b8260005260046020526040600020846000526020526005604060002001908154600160ff8260a81c1661195e81612618565b03611bf85760ff60a81b1916600360a81b178255156119c057805460ff60a01b1916600160a11b1790557fc84a77110774854ab237145b108e924962dbaa5191275eb044a6cb09621c4a94906020906119b78585612861565b604051908152a3005b805460ff60a01b1916600560a01b179055600082815260036020908152604080832060048352818420878552835281842054868552600684528285209251835480825293865284862092989697919691959094919385928301915b818110611bd6575050611a309250038361244a565b60005b8251811015611b8357600060018060a01b0360208360051b86010151169085815260056020526040812060018060a01b03831682526020526040812060ff6002820154161580611b79575b611a8e575b505050600101611a33565b611a99905488612841565b60048a0154908115611b655760078b01549190049190879060081c6001600160a01b031680611b2a575050808284828215611b21575b839283928392f115611b15575090857f80b577b4fc190ab86d963549e29f496afd079c5d81a2480d61217d4b5060a28c6020600195945b604051908152a3908880611a83565b604051903d90823e3d90fd5b506108fc611acf565b7f80b577b4fc190ab86d963549e29f496afd079c5d81a2480d61217d4b5060a28c91925083611b60869560019897602094612c81565b611b06565b634e487b7160e01b83526012600452602483fd5b5080541515611a7e565b5094505091602090611bc37fc84a77110774854ab237145b108e924962dbaa5191275eb044a6cb09621c4a94938560005260078452604060002054612854565b84600052600783526040600020556119b7565b84546001600160a01b0316835260019485019487945060209093019201611a1b565b60405162461bcd60e51b81526020600482015260116024820152704e6f20616374697665206469737075746560781b6044820152606490fd5b63e2517d3f60e01b600052336004527f92a19c77d2ea87c7f81d50c74403cb2f401780f3ad919571121efe2bdb427eb160245260446000fd5b346101ea5760403660031901126101ea57611c83612638565b336001600160a01b03821603611c9f5761001b90600435612bd9565b63334bd91960e11b60005260046000fd5b346101ea5760403660031901126101ea57611cc961264e565b6001600160a01b03166000908152600860205260409020805460243591908210156101ea57602091611cfa91612664565b90549060031b1c604051908152f35b346101ea5760403660031901126101ea5761001b600435611d28612638565b90611d446106bf82600052600160205260016040600020015490565b612b4a565b346101ea5760003660031901126101ea5760206040516301e133808152f35b346101ea5760203660031901126101ea576020611d95600435600052600160205260016040600020015490565b604051908152f35b346101ea5760003660031901126101ea5760206040517fa91575122619884f8f346f6f08d276f996bc367457e1cf69df01d9361cf4e0f18152f35b346101ea57611de636612622565b611dee612794565b3360009081527f54fa744d02e0cd6feb2b438b7701c241f85ef8aa84993c058c9ed46b60f00edc602052604090205460ff168015611fc4575b15611f7f57816000526004602052604060002081600052602052604060002091600583019260ff845460a01c16600681101561082957600103611f3a5733600090815260088201602081905260409091205460ff16611f025733600090815260209190915260409020805460ff19166001179055600981018054611eaa906126bb565b8091553384847f9ffbb52f2a1362273cd74689a516ca4f52c4282dc13e2e68b7e0646a9a7af7a3600080a4600a8201541115611ee257005b61001b93600160a11b60ff60a01b19825416179055600742910155612861565b60405162461bcd60e51b815260206004820152601060248201526f105b1c9958591e48185c1c1c9bdd995960821b6044820152606490fd5b60405162461bcd60e51b815260206004820152601760248201527f4d696c6573746f6e65206e6f74207375626d69747465640000000000000000006044820152606490fd5b60405162461bcd60e51b815260206004820152601a60248201527f4e6f7420617574686f72697a656420746f2076616c69646174650000000000006044820152606490fd5b5060008281526005602090815260408083203384529091529020541515611e27565b346101ea5760203660031901126101ea576004356120026127b1565b6103e8811161201057600a55005b60405162461bcd60e51b815260206004820152600c60248201526b08ccaca40e8dede40d0d2ced60a31b6044820152606490fd5b346101ea5760203660031901126101ea576004356000526003602052610180604060002060018060a01b038154169061207f60018201612533565b61208b60028301612533565b916003810154926004820154600583015490600684015460078501549260ff8416926120ec6008880154966120de60ff600a60098c01549b0154169a6040519e8f9e8f90815281602082015201906125d7565b8c810360408e0152906125d7565b9860608b015260808a015260a089015260c088015261210a81612618565b60e087015260081c6001600160a01b031661010086015261012085015261014084015215156101608301520390f35b346101ea57612147366124c3565b612152929192612794565b6000828152600360205260409020546001600160a01b031633036123b25781600052600460205260406000208360005260205260406000206005810160ff815460a01c1660068110156108295761236d578251156123305760048201835167ffffffffffffffff8111610564576121c982546124f9565b601f81116122e8575b506020601f821160011461225c5791817f7f4d80269cdce8cfe4d74c1ac8ede5d2940be71300d92461a70468bfa0888cac96949261224c9694600091612251575b508160011b916000199060031b1c19161790555b600160a01b60ff60a01b1982541617905560064291015560405191829142908361269f565b0390a3005b90508501518a612213565b601f1982169083600052806000209160005b8181106122d057509261224c969492600192827f7f4d80269cdce8cfe4d74c1ac8ede5d2940be71300d92461a70468bfa0888cac9a9896106122b7575b5050811b019055612227565b87015160001960f88460031b161c191690558a806122ab565b9192602060018192868c01518155019401920161226e565b826000526020600020601f830160051c81019160208410612326575b601f0160051c01905b81811061231a57506121d2565b6000815560010161230d565b9091508190612304565b60405162461bcd60e51b8152602060048201526015602482015274115d9a59195b98d948155492481c995c5d5a5c9959605a1b6044820152606490fd5b60405162461bcd60e51b815260206004820152601860248201527f496e76616c6964206d696c6573746f6e652073746174757300000000000000006044820152606490fd5b60405162461bcd60e51b815260206004820152601760248201527f4f6e6c792063726561746f722063616e207375626d69740000000000000000006044820152606490fd5b346101ea5760203660031901126101ea576004359063ffffffff60e01b82168092036101ea57602091637965db0b60e01b8114908115612439575b5015158152f35b6301ffc9a760e01b14905083612432565b90601f8019910116810190811067ffffffffffffffff82111761056457604052565b81601f820112156101ea5780359067ffffffffffffffff821161056457604051926124a1601f8401601f19166020018561244a565b828452602083830101116101ea57816000926020809301838601378301015290565b60606003198201126101ea5760043591602435916044359067ffffffffffffffff82116101ea576124f69160040161246c565b90565b90600182811c92168015612529575b602083101461251357565b634e487b7160e01b600052602260045260246000fd5b91607f1691612508565b9060405191826000825492612547846124f9565b80845293600181169081156125b5575060011461256e575b5061256c9250038361244a565b565b90506000929192526020600020906000915b81831061259957505090602061256c928201013861255f565b6020919350806001915483858901015201910190918492612580565b90506020925061256c94915060ff191682840152151560051b8201013861255f565b919082519283825260005b848110612603575050826000602080949584010152601f8019910116010190565b806020809284010151828286010152016125e2565b6004111561082957565b60409060031901126101ea576004359060243590565b602435906001600160a01b03821682036101ea57565b600435906001600160a01b03821682036101ea57565b805482101561267c5760005260206000200190600090565b634e487b7160e01b600052603260045260246000fd5b9060068210156108295752565b9291906126b66020916040865260408601906125d7565b930152565b6000198114610ce85760010190565b156126d157565b60405162461bcd60e51b815260206004820152600e60248201526d151a5d1b19481c995c5d5a5c995960921b6044820152606490fd5b91908201809211610ce857565b1561271b57565b60405162461bcd60e51b815260206004820152601260248201527150726f6a656374206e6f742061637469766560701b6044820152606490fd5b1561275c57565b60405162461bcd60e51b815260206004820152601060248201526f105b1c9958591e481c995b19585cd95960821b6044820152606490fd5b60ff600254166127a057565b63d93c066560e01b60005260046000fd5b3360009081527fa6eef7e35abe7026729641147f7915573c7e97b47efa546f5f6e3230263bcb49602052604090205460ff16156127ea57565b63e2517d3f60e01b60005233600452600060245260446000fd5b600081815260016020908152604080832033845290915290205460ff16156128295750565b63e2517d3f60e01b6000523360045260245260446000fd5b81810292918115918404141715610ce857565b91908203918211610ce857565b8060005260036020526040600020816000526004602052604060002083600052602052604060002090600582019160ff835460a01c169060068210156108295760028203612a31576128b860046000931415612755565b5461290c6127106128cb600a5484612841565b04916128d78382612854565b865460ff60a01b1916600160a21b179096556009850180546128f8906126bb565b905586845260076020526040842054612854565b8583526007602081905260408420919091558301805460081c6001600160a01b0316806129d4575050818080808760018060a01b038854168282156129cb575bf1156129be57600b5482918291829182916001600160a01b03168282156129b5575bf115611b155750907f7c23647db3cb03f6f0d92ad3dcde207e9a1640d0b15a34689bd0ea8c8400f8d5915b54604080519283526001600160a01b03909116602083015290a3565b506108fc61296e565b50604051903d90823e3d90fd5b506108fc61294c565b8594935090612a137f7c23647db3cb03f6f0d92ad3dcde207e9a1640d0b15a34689bd0ea8c8400f8d596612a2c949360018060a01b0387541690612c81565b54600b546001600160a01b039081169160081c16612c81565b612999565b60405162461bcd60e51b815260206004820152601860248201527f4e6f7420617070726f76656420666f722072656c6561736500000000000000006044820152606490fd5b6001600160a01b03811660009081527fdbb03116500f103bfcb56d8bc492bb4f7b4629d420e419afe86aed6523ca5f81602052604090205460ff16612b44576001600160a01b031660008181527fdbb03116500f103bfcb56d8bc492bb4f7b4629d420e419afe86aed6523ca5f8160205260408120805460ff191660011790553391907fa91575122619884f8f346f6f08d276f996bc367457e1cf69df01d9361cf4e0f1907f2f8788117e7eff1d82e926ec794901d17c78024a50270940304540a733656f0d9080a4600190565b50600090565b60008181526001602090815260408083206001600160a01b038616845290915290205460ff16612bd25760008181526001602081815260408084206001600160a01b0396909616808552959091528220805460ff19169091179055339291907f2f8788117e7eff1d82e926ec794901d17c78024a50270940304540a733656f0d9080a4600190565b5050600090565b60008181526001602090815260408083206001600160a01b038616845290915290205460ff1615612bd25760008181526001602090815260408083206001600160a01b0395909516808452949091528120805460ff19169055339291907ff6391f5c32d9c69d2a47ea670b442974b53935d1edc7fd64eb21e047a839171b9080a4600190565b600260005414612c70576002600055565b633ee5aeb560e01b60005260046000fd5b60405163a9059cbb60e01b60208201526001600160a01b03909216602483015260448083019390935291815261256c91612cbc60648361244a565b906000602091828151910182855af1156116ed576000513d612d0e57506001600160a01b0381163b155b612ced5750565b635274afe760e01b60009081526001600160a01b0391909116600452602490fd5b60011415612ce656fea26469706673582212208524ad4322622d211d894decf8734bfc13d3d8359f8d252724673a68e2ce45a164736f6c634300081c00332f8788117e7eff1d82e926ec794901d17c78024a50270940304540a733656f0da6eef7e35abe7026729641147f7915573c7e97b47efa546f5f6e3230263bcb4954fa744d02e0cd6feb2b438b7701c241f85ef8aa84993c058c9ed46b60f00edc",
  "linkReferences": {},
  "deployedLinkReferences": {},
  "immutableReferences": {},
  "inputSourceName": "project/contracts/Escrow.sol",
  "buildInfoId": "solc-0_8_28-da22c518729d73371a005336a2da6fd9527f4f7e"
}