{
  "_format": "hh3-artifact-1",
  "contractName": "InvestmentNFT",
  "sourceName": "contracts/InvestmentNFT.sol",
  "abi": [
    {
      "inputs": [
        {
          "internalType": "string",
          "name": "_baseURI",
          "type": "string"
        },
        {
          "internalType": "address",
          "name": "_feeRecipient",
          "type": "address"
        },
        {
          "internalType": "address",
          "name": "_escrowContract",
          "type": "address"
        }
      ],
      "stateMutability": "nonpayable",
      "type": "constructor"
    },
    {
      "inputs": [],
      "name": "AccessControlBadConfirmation",
      "type": "error"
    },
    {
      "inputs": [
        {
          "internalType": "address",
          "name": "account",
          "type": "address"
        },
        {
          "internalType": "bytes32",
          "name": "neededRole",
          "type": "bytes32"
        }
      ],
      "name": "AccessControlUnauthorizedAccount",
      "type": "error"
    },
    {
      "inputs": [
        {
          "internalType": "address",
          "name": "sender",
          "type": "address"
        },
        {
          "internalType": "uint256",
          "name": "balance",
          "type": "uint256"
        },
        {
          "internalType": "uint256",
          "name": "needed",
          "type": "uint256"
        },
        {
          "internalType": "uint256",
          "name": "tokenId",
          "type": "uint256"
        }
      ],
      "name": "ERC1155InsufficientBalance",
      "type": "error"
    },
    {
      "inputs": [
        {
          "internalType": "address",
          "name": "approver",
          "type": "address"
        }
      ],
      "name": "ERC1155InvalidApprover",
      "type": "error"
    },
    {
      "inputs": [
        {
          "internalType": "uint256",
          "name": "idsLength",
          "type": "uint256"
        },
        {
          "internalType": "uint256",
          "name": "valuesLength",
          "type": "uint256"
        }
      ],
      "name": "ERC1155InvalidArrayLength",
      "type": "error"
    },
    {
      "inputs": [
        {
          "internalType": "address",
          "name": "operator",
          "type": "address"
        }
      ],
      "name": "ERC1155InvalidOperator",
      "type": "error"
    },
    {
      "inputs": [
        {
          "internalType": "address",
          "name": "receiver",
          "type": "address"
        }
      ],
      "name": "ERC1155InvalidReceiver",
      "type": "error"
    },
    {
      "inputs": [
        {
          "internalType": "address",
          "name": "sender",
          "type": "address"
        }
      ],
      "name": "ERC1155InvalidSender",
      "type": "error"
    },
    {
      "inputs": [
        {
          "internalType": "address",
          "name": "operator",
          "type": "address"
        },
        {
          "internalType": "address",
          "name": "owner",
          "type": "address"
        }
      ],
      "name": "ERC1155MissingApprovalForAll",
      "type": "error"
    },
    {
      "inputs": [],
      "name": "EnforcedPause",
      "type": "error"
    },
    {
      "inputs": [],
      "name": "ExpectedPause",
      "type": "error"
    },
    {
      "inputs": [],
      "name": "ReentrancyGuardReentrantCall",
      "type": "error"
    },
    {
      "anonymous": false,
      "inputs": [
        {
          "indexed": true,
          "internalType": "address",
          "name": "account",
          "type": "address"
        },
        {
          "indexed": true,
          "internalType": "address",
          "name": "operator",
          "type": "address"
        },
        {
          "indexed": false,
          "internalType": "bool",
          "name": "approved",
          "type": "bool"
        }
      ],
      "name": "ApprovalForAll",
      "type": "event"
    },
    {
      "anonymous": false,
      "inputs": [
        {
          "indexed": true,
          "internalType": "uint256",
          "name": "projectId",
          "type": "uint256"
        },
        {
          "indexed": false,
          "internalType": "uint256",
          "name": "payoutId",
          "type": "uint256"
        },
        {
          "indexed": false,
          "internalType": "address",
          "name": "user",
          "type": "address"
        },
        {
          "indexed": false,
          "internalType": "uint256",
          "name": "amount",
          "type": "uint256"
        }
      ],
      "name": "DividendClaimed",
      "type": "event"
    },
    {
      "anonymous": false,
      "inputs": [
        {
          "indexed": true,
          "internalType": "uint256",
          "name": "projectId",
          "type": "uint256"
        },
        {
          "indexed": false,
          "internalType": "uint256",
          "name": "payoutId",
          "type": "uint256"
        },
        {
          "indexed": false,
          "internalType": "uint256",
          "name": "amount",
          "type": "uint256"
        }
      ],
      "name": "DividendDistributed",
      "type": "event"
    },
    {
      "anonymous": false,
      "inputs": [
        {
          "indexed": true,
          "internalType": "uint256",
          "name": "listingId",
          "type": "uint256"
        },
        {
          "indexed": false,
          "internalType": "uint256",
          "name": "projectId",
          "type": "uint256"
        },
        {
          "indexed": false,
          "internalType": "uint256",
          "name": "amount",
          "type": "uint256"
        }
      ],
      "name": "ListingCreated",
      "type": "event"
    },
    {
      "anonymous": false,
      "inputs": [
        {
          "indexed": true,
          "internalType": "uint256",
          "name": "projectId",
          "type": "uint256"
        },
        {
          "indexed": false,
          "internalType": "uint256",
          "name": "newValue",
          "type": "uint256"
        }
      ],
      "name": "MetadataUpdated",
      "type": "event"
    },
    {
      "anonymous": false,
      "inputs": [
        {
          "indexed": false,
          "internalType": "address",
          "name": "account",
          "type": "address"
        }
      ],
      "name": "Paused",
      "type": "event"
    },
    {
      "anonymous": false,
      "inputs": [
        {
          "indexed": true,
          "internalType": "uint256",
          "name": "projectId",
          "type": "uint256"
        },
        {
          "indexed": false,
          "internalType": "address",
          "name": "creator",
          "type": "address"
        },
        {
          "indexed": false,
          "internalType": "uint256",
          "name": "supply",
          "type": "uint256"
        }
      ],
      "name": "ProjectCreated",
      "type": "event"
    },
    {
      "anonymous": false,
      "inputs": [
        {
          "indexed": true,
          "internalType": "bytes32",
          "name": "role",
          "type": "bytes32"
        },
        {
          "indexed": true,
          "internalType": "bytes32",
          "name": "previousAdminRole",
          "type": "bytes32"
        },
        {
          "indexed": true,
          "internalType": "bytes32",
          "name": "newAdminRole",
          "type": "bytes32"
        }
      ],
      "name": "RoleAdminChanged",
      "type": "event"
    },
    {
      "anonymous": false,
      "inputs": [
        {
          "indexed": true,
          "internalType": "bytes32",
          "name": "role",
          "type": "bytes32"
        },
        {
          "indexed": true,
          "internalType": "address",
          "name": "account",
          "type": "address"
        },
        {
          "indexed": true,
          "internalType": "address",
          "name": "sender",
          "type": "address"
        }
      ],
      "name": "RoleGranted",
      "type": "event"
    },
    {
      "anonymous": false,
      "inputs": [
        {
          "indexed": true,
          "internalType": "bytes32",
          "name": "role",
          "type": "bytes32"
        },
        {
          "indexed": true,
          "internalType": "address",
          "name": "account",
          "type": "address"
        },
        {
          "indexed": true,
          "internalType": "address",
          "name": "sender",
          "type": "address"
        }
      ],
      "name": "RoleRevoked",
      "type": "event"
    },
    {
      "anonymous": false,
      "inputs": [
        {
          "indexed": true,
          "internalType": "uint256",
          "name": "projectId",
          "type": "uint256"
        },
        {
          "indexed": false,
          "internalType": "enum InvestmentNFT.ProjectStatus",
          "name": "status",
          "type": "uint8"
        }
      ],
      "name": "StatusUpdated",
      "type": "event"
    },
    {
      "anonymous": false,
      "inputs": [
        {
          "indexed": true,
          "internalType": "uint256",
          "name": "projectId",
          "type": "uint256"
        },
        {
          "indexed": false,
          "internalType": "address",
          "name": "investor",
          "type": "address"
        },
        {
          "indexed": false,
          "internalType": "uint256",
          "name": "amount",
          "type": "uint256"
        }
      ],
      "name": "TokensMinted",
      "type": "event"
    },
    {
      "anonymous": false,
      "inputs": [
        {
          "indexed": true,
          "internalType": "uint256",
          "name": "listingId",
          "type": "uint256"
        },
        {
          "indexed": false,
          "internalType": "address",
          "name": "buyer",
          "type": "address"
        },
        {
          "indexed": false,
          "internalType": "uint256",
          "name": "amount",
          "type": "uint256"
        }
      ],
      "name": "TokensPurchased",
      "type": "event"
    },
    {
      "anonymous": false,
      "inputs": [
        {
          "indexed": true,
          "internalType": "uint256",
          "name": "projectId",
          "type": "uint256"
        },
        {
          "indexed": false,
          "internalType": "address",
          "name": "user",
          "type": "address"
        },
        {
          "indexed": false,
          "internalType": "uint256",
          "name": "amount",
          "type": "uint256"
        }
      ],
      "name": "TokensRedeemed",
      "type": "event"
    },
    {
      "anonymous": false,
      "inputs": [
        {
          "indexed": true,
          "internalType": "address",
          "name": "operator",
          "type": "address"
        },
        {
          "indexed": true,
          "internalType": "address",
          "name": "from",
          "type": "address"
        },
        {
          "indexed": true,
          "internalType": "address",
          "name": "to",
          "type": "address"
        },
        {
          "indexed": false,
          "internalType": "uint256[]",
          "name": "ids",
          "type": "uint256[]"
        },
        {
          "indexed": false,
          "internalType": "uint256[]",
          "name": "values",
          "type": "uint256[]"
        }
      ],
      "name": "TransferBatch",
      "type": "event"
    },
    {
      "anonymous": false,
      "inputs": [
        {
          "indexed": true,
          "internalType": "address",
          "name": "operator",
          "type": "address"
        },
        {
          "indexed": true,
          "internalType": "address",
          "name": "from",
          "type": "address"
        },
        {
          "indexed": true,
          "internalType": "address",
          "name": "to",
          "type": "address"
        },
        {
          "indexed": false,
          "internalType": "uint256",
          "name": "id",
          "type": "uint256"
        },
        {
          "indexed": false,
          "internalType": "uint256",
          "name": "value",
          "type": "uint256"
        }
      ],
      "name": "TransferSingle",
      "type": "event"
    },
    {
      "anonymous": false,
      "inputs": [
        {
          "indexed": false,
          "internalType": "string",
          "name": "value",
          "type": "string"
        },
        {
          "indexed": true,
          "internalType": "uint256",
          "name": "id",
          "type": "uint256"
        }
      ],
      "name": "URI",
      "type": "event"
    },
    {
      "anonymous": false,
      "inputs": [
        {
          "indexed": false,
          "internalType": "address",
          "name": "account",
          "type": "address"
        }
      ],
      "name": "Unpaused",
      "type": "event"
    },
    {
      "inputs": [],
      "name": "BASIS_POINTS",
      "outputs": [
        {
          "internalType": "uint256",
          "name": "",
          "type": "uint256"
        }
      ],
      "stateMutability": "view",
      "type": "function"
    },
    {
      "inputs": [],
      "name": "DEFAULT_ADMIN_ROLE",
      "outputs": [
        {
          "internalType": "bytes32",
          "name": "",
          "type": "bytes32"
        }
      ],
      "stateMutability": "view",
      "type": "function"
    },
    {
      "inputs": [],
      "name": "DEFAULT_LOCKUP_PERIOD",
      "outputs": [
        {
          "internalType": "uint256",
          "name": "",
          "type": "uint256"
        }
      ],
      "stateMutability": "view",
      "type": "function"
    },
    {
      "inputs": [],
      "name": "FIXED_SUPPLY_PER_PROJECT",
      "outputs": [
        {
          "internalType": "uint256",
          "name": "",
          "type": "uint256"
        }
      ],
      "stateMutability": "view",
      "type": "function"
    },
    {
      "inputs": [],
      "name": "METADATA_UPDATER_ROLE",
      "outputs": [
        {
          "internalType": "bytes32",
          "name": "",
          "type": "bytes32"
        }
      ],
      "stateMutability": "view",
      "type": "function"
    },
    {
      "inputs": [],
      "name": "MINTER_ROLE",
      "outputs": [
        {
          "internalType": "bytes32",
          "name": "",
          "type": "bytes32"
        }
      ],
      "stateMutability": "view",
      "type": "function"
    },
    {
      "inputs": [],
      "name": "ORACLE_ROLE",
      "outputs": [
        {
          "internalType": "bytes32",
          "name": "",
          "type": "bytes32"
        }
      ],
      "stateMutability": "view",
      "type": "function"
    },
    {
      "inputs": [
        {
          "internalType": "address",
          "name": "account",
          "type": "address"
        },
        {
          "internalType": "uint256",
          "name": "id",
          "type": "uint256"
        }
      ],
      "name": "balanceOf",
      "outputs": [
        {
          "internalType": "uint256",
          "name": "",
          "type": "uint256"
        }
      ],
      "stateMutability": "view",
      "type": "function"
    },
    {
      "inputs": [
        {
          "internalType": "address[]",
          "name": "accounts",
          "type": "address[]"
        },
        {
          "internalType": "uint256[]",
          "name": "ids",
          "type": "uint256[]"
        }
      ],
      "name": "balanceOfBatch",
      "outputs": [
        {
          "internalType": "uint256[]",
          "name": "",
          "type": "uint256[]"
        }
      ],
      "stateMutability": "view",
      "type": "function"
    },
    {
      "inputs": [
        {
          "internalType": "uint256",
          "name": "_listingId",
          "type": "uint256"
        }
      ],
      "name": "cancelListing",
      "outputs": [],
      "stateMutability": "nonpayable",
      "type": "function"
    },
    {
      "inputs": [
        {
          "internalType": "uint256",
          "name": "_projectId",
          "type": "uint256"
        },
        {
          "internalType": "uint256",
          "name": "_payoutId",
          "type": "uint256"
        }
      ],
      "name": "claimDividends",
      "outputs": [],
      "stateMutability": "nonpayable",
      "type": "function"
    },
    {
      "inputs": [
        {
          "internalType": "uint256",
          "name": "_projectId",
          "type": "uint256"
        },
        {
          "internalType": "uint256",
          "name": "_amount",
          "type": "uint256"
        },
        {
          "internalType": "uint256",
          "name": "_price",
          "type": "uint256"
        },
        {
          "internalType": "address",
          "name": "_token",
          "type": "address"
        },
        {
          "internalType": "uint256",
          "name": "_expiry",
          "type": "uint256"
        },
        {
          "internalType": "bool",
          "name": "_partialFill",
          "type": "bool"
        },
        {
          "internalType": "uint256",
          "name": "_minPurchase",
          "type": "uint256"
        }
      ],
      "name": "createListing",
      "outputs": [
        {
          "internalType": "uint256",
          "name": "",
          "type": "uint256"
        }
      ],
      "stateMutability": "nonpayable",
      "type": "function"
    },
    {
      "inputs": [
        {
          "internalType": "uint256",
          "name": "_id",
          "type": "uint256"
        },
        {
          "internalType": "address",
          "name": "_creator",
          "type": "address"
        },
        {
          "internalType": "uint256",
          "name": "_target",
          "type": "uint256"
        },
        {
          "internalType": "address",
          "name": "_token",
          "type": "address"
        }
      ],
      "name": "createProjectNFT",
      "outputs": [
        {
          "internalType": "uint256",
          "name": "",
          "type": "uint256"
        }
      ],
      "stateMutability": "nonpayable",
      "type": "function"
    },
    {
      "inputs": [
        {
          "internalType": "uint256",
          "name": "_projectId",
          "type": "uint256"
        },
        {
          "internalType": "uint256",
          "name": "_amount",
          "type": "uint256"
        },
        {
          "internalType": "address",
          "name": "_token",
          "type": "address"
        }
      ],
      "name": "distributeDividends",
      "outputs": [],
      "stateMutability": "payable",
      "type": "function"
    },
    {
      "inputs": [
        {
          "internalType": "uint256",
          "name": "",
          "type": "uint256"
        },
        {
          "internalType": "uint256",
          "name": "",
          "type": "uint256"
        },
        {
          "internalType": "address",
          "name": "",
          "type": "address"
        }
      ],
      "name": "dividendAmount",
      "outputs": [
        {
          "internalType": "uint256",
          "name": "",
          "type": "uint256"
        }
      ],
      "stateMutability": "view",
      "type": "function"
    },
    {
      "inputs": [
        {
          "internalType": "uint256",
          "name": "",
          "type": "uint256"
        },
        {
          "internalType": "uint256",
          "name": "",
          "type": "uint256"
        },
        {
          "internalType": "address",
          "name": "",
          "type": "address"
        }
      ],
      "name": "dividendClaimed",
      "outputs": [
        {
          "internalType": "bool",
          "name": "",
          "type": "bool"
        }
      ],
      "stateMutability": "view",
      "type": "function"
    },
    {
      "inputs": [
        {
          "internalType": "uint256",
          "name": "",
          "type": "uint256"
        }
      ],
      "name": "dividendCount",
      "outputs": [
        {
          "internalType": "uint256",
          "name": "",
          "type": "uint256"
        }
      ],
      "stateMutability": "view",
      "type": "function"
    },
    {
      "inputs": [
        {
          "internalType": "uint256",
          "name": "",
          "type": "uint256"
        },
        {
          "internalType": "uint256",
          "name": "",
          "type": "uint256"
        }
      ],
      "name": "dividends",
      "outputs": [
        {
          "internalType": "uint256",
          "name": "totalAmount",
          "type": "uint256"
        },
        {
          "internalType": "uint256",
          "name": "pricePerToken",
          "type": "uint256"
        },
        {
          "internalType": "uint256",
          "name": "payoutDate",
          "type": "uint256"
        },
        {
          "internalType": "address",
          "name": "paymentToken",
          "type": "address"
        }
      ],
      "stateMutability": "view",
      "type": "function"
    },
    {
      "inputs": [
        {
          "internalType": "address",
          "name": "_token",
          "type": "address"
        },
        {
          "internalType": "uint256",
          "name": "_amount",
          "type": "uint256"
        }
      ],
      "name": "emergencyWithdraw",
      "outputs": [],
      "stateMutability": "nonpayable",
      "type": "function"
    },
    {
      "inputs": [],
      "name": "escrowContract",
      "outputs": [
        {
          "internalType": "address",
          "name": "",
          "type": "address"
        }
      ],
      "stateMutability": "view",
      "type": "function"
    },
    {
      "inputs": [
        {
          "internalType": "uint256",
          "name": "id",
          "type": "uint256"
        }
      ],
      "name": "exists",
      "outputs": [
        {
          "internalType": "bool",
          "name": "",
          "type": "bool"
        }
      ],
      "stateMutability": "view",
      "type": "function"
    },
    {
      "inputs": [],
      "name": "feeRecipient",
      "outputs": [
        {
          "internalType": "address",
          "name": "",
          "type": "address"
        }
      ],
      "stateMutability": "view",
      "type": "function"
    },
    {
      "inputs": [
        {
          "internalType": "uint256",
          "name": "_projectId",
          "type": "uint256"
        },
        {
          "internalType": "address",
          "name": "_user",
          "type": "address"
        }
      ],
      "name": "getInvestment",
      "outputs": [
        {
          "internalType": "uint256",
          "name": "originalAmount",
          "type": "uint256"
        },
        {
          "internalType": "uint256",
          "name": "tokens",
          "type": "uint256"
        },
        {
          "internalType": "uint256",
          "name": "currentValue",
          "type": "uint256"
        },
        {
          "internalType": "uint256",
          "name": "totalDividends",
          "type": "uint256"
        },
        {
          "internalType": "uint256",
          "name": "avgPrice",
          "type": "uint256"
        }
      ],
      "stateMutability": "view",
      "type": "function"
    },
    {
      "inputs": [
        {
          "internalType": "uint256",
          "name": "_id",
          "type": "uint256"
        }
      ],
      "name": "getListing",
      "outputs": [
        {
          "internalType": "address",
          "name": "seller",
          "type": "address"
        },
        {
          "internalType": "uint256",
          "name": "tokenId",
          "type": "uint256"
        },
        {
          "internalType": "uint256",
          "name": "amount",
          "type": "uint256"
        },
        {
          "internalType": "uint256",
          "name": "price",
          "type": "uint256"
        },
        {
          "internalType": "bool",
          "name": "active",
          "type": "bool"
        }
      ],
      "stateMutability": "view",
      "type": "function"
    },
    {
      "inputs": [
        {
          "internalType": "uint256",
          "name": "_id",
          "type": "uint256"
        }
      ],
      "name": "getMetadata",
      "outputs": [
        {
          "internalType": "string",
          "name": "title",
          "type": "string"
        },
        {
          "internalType": "string",
          "name": "description",
          "type": "string"
        },
        {
          "internalType": "uint256",
          "name": "multiplier",
          "type": "uint256"
        }
      ],
      "stateMutability": "view",
      "type": "function"
    },
    {
      "inputs": [
        {
          "internalType": "uint256",
          "name": "_id",
          "type": "uint256"
        }
      ],
      "name": "getProject",
      "outputs": [
        {
          "internalType": "address",
          "name": "creator",
          "type": "address"
        },
        {
          "internalType": "uint256",
          "name": "target",
          "type": "uint256"
        },
        {
          "internalType": "uint256",
          "name": "currentValue",
          "type": "uint256"
        },
        {
          "internalType": "enum InvestmentNFT.ProjectStatus",
          "name": "status",
          "type": "uint8"
        },
        {
          "internalType": "bool",
          "name": "redeemable",
          "type": "bool"
        }
      ],
      "stateMutability": "view",
      "type": "function"
    },
    {
      "inputs": [
        {
          "internalType": "bytes32",
          "name": "role",
          "type": "bytes32"
        }
      ],
      "name": "getRoleAdmin",
      "outputs": [
        {
          "internalType": "bytes32",
          "name": "",
          "type": "bytes32"
        }
      ],
      "stateMutability": "view",
      "type": "function"
    },
    {
      "inputs": [
        {
          "internalType": "uint256",
          "name": "_projectId",
          "type": "uint256"
        },
        {
          "internalType": "address",
          "name": "_user",
          "type": "address"
        }
      ],
      "name": "getUnclaimedDividends",
      "outputs": [
        {
          "internalType": "uint256[]",
          "name": "payoutIds",
          "type": "uint256[]"
        },
        {
          "internalType": "uint256[]",
          "name": "amounts",
          "type": "uint256[]"
        }
      ],
      "stateMutability": "view",
      "type": "function"
    },
    {
      "inputs": [
        {
          "internalType": "bytes32",
          "name": "role",
          "type": "bytes32"
        },
        {
          "internalType": "address",
          "name": "account",
          "type": "address"
        }
      ],
      "name": "grantRole",
      "outputs": [],
      "stateMutability": "nonpayable",
      "type": "function"
    },
    {
      "inputs": [
        {
          "internalType": "bytes32",
          "name": "role",
          "type": "bytes32"
        },
        {
          "internalType": "address",
          "name": "account",
          "type": "address"
        }
      ],
      "name": "hasRole",
      "outputs": [
        {
          "internalType": "bool",
          "name": "",
          "type": "bool"
        }
      ],
      "stateMutability": "view",
      "type": "function"
    },
    {
      "inputs": [
        {
          "internalType": "uint256",
          "name": "",
          "type": "uint256"
        },
        {
          "internalType": "address",
          "name": "",
          "type": "address"
        }
      ],
      "name": "investments",
      "outputs": [
        {
          "internalType": "uint256",
          "name": "originalAmount",
          "type": "uint256"
        },
        {
          "internalType": "uint256",
          "name": "tokenAmount",
          "type": "uint256"
        },
        {
          "internalType": "uint256",
          "name": "investmentDate",
          "type": "uint256"
        },
        {
          "internalType": "uint256",
          "name": "averageBuyPrice",
          "type": "uint256"
        },
        {
          "internalType": "uint256",
          "name": "totalDividends",
          "type": "uint256"
        },
        {
          "internalType": "uint256",
          "name": "lastClaimDate",
          "type": "uint256"
        },
        {
          "internalType": "bool",
          "name": "hasRedeemed",
          "type": "bool"
        }
      ],
      "stateMutability": "view",
      "type": "function"
    },
    {
      "inputs": [
        {
          "internalType": "uint256",
          "name": "",
          "type": "uint256"
        },
        {
          "internalType": "uint256",
          "name": "",
          "type": "uint256"
        }
      ],
      "name": "investors",
      "outputs": [
        {
          "internalType": "address",
          "name": "",
          "type": "address"
        }
      ],
      "stateMutability": "view",
      "type": "function"
    },
    {
      "inputs": [
        {
          "internalType": "address",
          "name": "account",
          "type": "address"
        },
        {
          "internalType": "address",
          "name": "operator",
          "type": "address"
        }
      ],
      "name": "isApprovedForAll",
      "outputs": [
        {
          "internalType": "bool",
          "name": "",
          "type": "bool"
        }
      ],
      "stateMutability": "view",
      "type": "function"
    },
    {
      "inputs": [],
      "name": "listingCounter",
      "outputs": [
        {
          "internalType": "uint256",
          "name": "",
          "type": "uint256"
        }
      ],
      "stateMutability": "view",
      "type": "function"
    },
    {
      "inputs": [
        {
          "internalType": "uint256",
          "name": "",
          "type": "uint256"
        }
      ],
      "name": "listings",
      "outputs": [
        {
          "internalType": "address",
          "name": "seller",
          "type": "address"
        },
        {
          "internalType": "uint256",
          "name": "tokenId",
          "type": "uint256"
        },
        {
          "internalType": "uint256",
          "name": "amount",
          "type": "uint256"
        },
        {
          "internalType": "uint256",
          "name": "pricePerToken",
          "type": "uint256"
        },
        {
          "internalType": "address",
          "name": "paymentToken",
          "type": "address"
        },
        {
          "internalType": "uint256",
          "name": "expiryDate",
          "type": "uint256"
        },
        {
          "internalType": "uint256",
          "name": "minPurchase",
          "type": "uint256"
        },
        {
          "internalType": "bool",
          "name": "active",
          "type": "bool"
        },
        {
          "internalType": "bool",
          "name": "partialFill",
          "type": "bool"
        }
      ],
      "stateMutability": "view",
      "type": "function"
    },
    {
      "inputs": [],
      "name": "marketplaceFee",
      "outputs": [
        {
          "internalType": "uint256",
          "name": "",
          "type": "uint256"
        }
      ],
      "stateMutability": "view",
      "type": "function"
    },
    {
      "inputs": [
        {
          "internalType": "uint256",
          "name": "",
          "type": "uint256"
        }
      ],
      "name": "metadata",
      "outputs": [
        {
          "internalType": "string",
          "name": "title",
          "type": "string"
        },
        {
          "internalType": "string",
          "name": "description",
          "type": "string"
        },
        {
          "internalType": "string",
          "name": "metadataURI",
          "type": "string"
        },
        {
          "internalType": "uint256",
          "name": "performanceMultiplier",
          "type": "uint256"
        },
        {
          "internalType": "uint256",
          "name": "lastUpdateDate",
          "type": "uint256"
        }
      ],
      "stateMutability": "view",
      "type": "function"
    },
    {
      "inputs": [
        {
          "internalType": "uint256",
          "name": "_projectId",
          "type": "uint256"
        },
        {
          "internalType": "address",
          "name": "_investor",
          "type": "address"
        },
        {
          "internalType": "uint256",
          "name": "_amount",
          "type": "uint256"
        }
      ],
      "name": "mintInvestmentTokens",
      "outputs": [],
      "stateMutability": "nonpayable",
      "type": "function"
    },
    {
      "inputs": [],
      "name": "pause",
      "outputs": [],
      "stateMutability": "nonpayable",
      "type": "function"
    },
    {
      "inputs": [],
      "name": "paused",
      "outputs": [
        {
          "internalType": "bool",
          "name": "",
          "type": "bool"
        }
      ],
      "stateMutability": "view",
      "type": "function"
    },
    {
      "inputs": [
        {
          "internalType": "uint256",
          "name": "",
          "type": "uint256"
        }
      ],
      "name": "projects",
      "outputs": [
        {
          "internalType": "uint256",
          "name": "projectId",
          "type": "uint256"
        },
        {
          "internalType": "address",
          "name": "creator",
          "type": "address"
        },
        {
          "internalType": "address",
          "name": "paymentToken",
          "type": "address"
        },
        {
          "internalType": "uint256",
          "name": "targetAmount",
          "type": "uint256"
        },
        {
          "internalType": "uint256",
          "name": "initialTokenValue",
          "type": "uint256"
        },
        {
          "internalType": "uint256",
          "name": "currentTokenValue",
          "type": "uint256"
        },
        {
          "internalType": "uint256",
          "name": "creationDate",
          "type": "uint256"
        },
        {
          "internalType": "uint256",
          "name": "lockupPeriod",
          "type": "uint256"
        },
        {
          "internalType": "enum InvestmentNFT.ProjectStatus",
          "name": "status",
          "type": "uint8"
        },
        {
          "internalType": "bool",
          "name": "redeemable",
          "type": "bool"
        }
      ],
      "stateMutability": "view",
      "type": "function"
    },
    {
      "inputs": [
        {
          "internalType": "uint256",
          "name": "_listingId",
          "type": "uint256"
        },
        {
          "internalType": "uint256",
          "name": "_amount",
          "type": "uint256"
        }
      ],
      "name": "purchase",
      "outputs": [],
      "stateMutability": "payable",
      "type": "function"
    },
    {
      "inputs": [
        {
          "internalType": "uint256",
          "name": "_projectId",
          "type": "uint256"
        },
        {
          "internalType": "uint256",
          "name": "_amount",
          "type": "uint256"
        }
      ],
      "name": "redeemTokens",
      "outputs": [],
      "stateMutability": "nonpayable",
      "type": "function"
    },
    {
      "inputs": [
        {
          "internalType": "bytes32",
          "name": "role",
          "type": "bytes32"
        },
        {
          "internalType": "address",
          "name": "callerConfirmation",
          "type": "address"
        }
      ],
      "name": "renounceRole",
      "outputs": [],
      "stateMutability": "nonpayable",
      "type": "function"
    },
    {
      "inputs": [
        {
          "internalType": "bytes32",
          "name": "role",
          "type": "bytes32"
        },
        {
          "internalType": "address",
          "name": "account",
          "type": "address"
        }
      ],
      "name": "revokeRole",
      "outputs": [],
      "stateMutability": "nonpayable",
      "type": "function"
    },
    {
      "inputs": [
        {
          "internalType": "address",
          "name": "from",
          "type": "address"
        },
        {
          "internalType": "address",
          "name": "to",
          "type": "address"
        },
        {
          "internalType": "uint256[]",
          "name": "ids",
          "type": "uint256[]"
        },
        {
          "internalType": "uint256[]",
          "name": "values",
          "type": "uint256[]"
        },
        {
          "internalType": "bytes",
          "name": "data",
          "type": "bytes"
        }
      ],
      "name": "safeBatchTransferFrom",
      "outputs": [],
      "stateMutability": "nonpayable",
      "type": "function"
    },
    {
      "inputs": [
        {
          "internalType": "address",
          "name": "from",
          "type": "address"
        },
        {
          "internalType": "address",
          "name": "to",
          "type": "address"
        },
        {
          "internalType": "uint256",
          "name": "id",
          "type": "uint256"
        },
        {
          "internalType": "uint256",
          "name": "value",
          "type": "uint256"
        },
        {
          "internalType": "bytes",
          "name": "data",
          "type": "bytes"
        }
      ],
      "name": "safeTransferFrom",
      "outputs": [],
      "stateMutability": "nonpayable",
      "type": "function"
    },
    {
      "inputs": [
        {
          "internalType": "address",
          "name": "operator",
          "type": "address"
        },
        {
          "internalType": "bool",
          "name": "approved",
          "type": "bool"
        }
      ],
      "name": "setApprovalForAll",
      "outputs": [],
      "stateMutability": "nonpayable",
      "type": "function"
    },
    {
      "inputs": [
        {
          "internalType": "string",
          "name": "_uri",
          "type": "string"
        }
      ],
      "name": "setBaseURI",
      "outputs": [],
      "stateMutability": "nonpayable",
      "type": "function"
    },
    {
      "inputs": [
        {
          "internalType": "address",
          "name": "_escrow",
          "type": "address"
        }
      ],
      "name": "setEscrowContract",
      "outputs": [],
      "stateMutability": "nonpayable",
      "type": "function"
    },
    {
      "inputs": [
        {
          "internalType": "address",
          "name": "_recipient",
          "type": "address"
        }
      ],
      "name": "setFeeRecipient",
      "outputs": [],
      "stateMutability": "nonpayable",
      "type": "function"
    },
    {
      "inputs": [
        {
          "internalType": "uint256",
          "name": "_fee",
          "type": "uint256"
        }
      ],
      "name": "setMarketplaceFee",
      "outputs": [],
      "stateMutability": "nonpayable",
      "type": "function"
    },
    {
      "inputs": [
        {
          "internalType": "uint256",
          "name": "_id",
          "type": "uint256"
        },
        {
          "internalType": "string",
          "name": "_title",
          "type": "string"
        },
        {
          "internalType": "string",
          "name": "_desc",
          "type": "string"
        },
        {
          "internalType": "string",
          "name": "_uri",
          "type": "string"
        }
      ],
      "name": "setProjectMetadata",
      "outputs": [],
      "stateMutability": "nonpayable",
      "type": "function"
    },
    {
      "inputs": [
        {
          "internalType": "bytes4",
          "name": "interfaceId",
          "type": "bytes4"
        }
      ],
      "name": "supportsInterface",
      "outputs": [
        {
          "internalType": "bool",
          "name": "",
          "type": "bool"
        }
      ],
      "stateMutability": "view",
      "type": "function"
    },
    {
      "inputs": [],
      "name": "totalSupply",
      "outputs": [
        {
          "internalType": "uint256",
          "name": "",
          "type": "uint256"
        }
      ],
      "stateMutability": "view",
      "type": "function"
    },
    {
      "inputs": [
        {
          "internalType": "uint256",
          "name": "id",
          "type": "uint256"
        }
      ],
      "name": "totalSupply",
      "outputs": [
        {
          "internalType": "uint256",
          "name": "",
          "type": "uint256"
        }
      ],
      "stateMutability": "view",
      "type": "function"
    },
    {
      "inputs": [],
      "name": "unpause",
      "outputs": [],
      "stateMutability": "nonpayable",
      "type": "function"
    },
    {
      "inputs": [
        {
          "internalType": "uint256",
          "name": "_projectId",
          "type": "uint256"
        },
        {
          "internalType": "uint256",
          "name": "_newValue",
          "type": "uint256"
        },
        {
          "internalType": "uint256",
          "name": "_multiplier",
          "type": "uint256"
        }
      ],
      "name": "updateMetadata",
      "outputs": [],
      "stateMutability": "nonpayable",
      "type": "function"
    },
    {
      "inputs": [
        {
          "internalType": "uint256",
          "name": "_projectId",
          "type": "uint256"
        },
        {
          "internalType": "string",
          "name": "_uri",
          "type": "string"
        }
      ],
      "name": "updateMetadataURI",
      "outputs": [],
      "stateMutability": "nonpayable",
      "type": "function"
    },
    {
      "inputs": [
        {
          "internalType": "uint256",
          "name": "_projectId",
          "type": "uint256"
        },
        {
          "internalType": "enum InvestmentNFT.ProjectStatus",
          "name": "_status",
          "type": "uint8"
        }
      ],
      "name": "updateStatus",
      "outputs": [],
      "stateMutability": "nonpayable",
      "type": "function"
    },
    {
      "inputs": [
        {
          "internalType": "uint256",
          "name": "_tokenId",
          "type": "uint256"
        }
      ],
      "name": "uri",
      "outputs": [
        {
          "internalType": "string",
          "name": "",
          "type": "string"
        }
      ],
      "stateMutability": "view",
      "type": "function"
    },
    {
      "inputs": [
        {
          "internalType": "address",
          "name": "",
          "type": "address"
        },
        {
          "internalType": "uint256",
          "name": "",
          "type": "uint256"
        }
      ],
      "name": "userProjects",
      "outputs": [
        {
          "internalType": "uint256",
          "name": "",
          "type": "uint256"
        }
      ],
      "stateMutability": "view",
      "type": "function"
    },
    {
      "stateMutability": "payable",
      "type": "receive"
    }
  ],
  "bytecode": "0x60806040523461046b5761513e8038038061001981610470565b928339810160608282031261046b5781516001600160401b03811161046b57820181601f8201121561046b578051906001600160401b0382116102e557610069601f8301601f1916602001610470565b928284526020838301011161046b5760005b8281106104565750506020600091830101526100a5604061009e60208501610495565b9301610495565b8151926001600160401b0384116102e557600254600181811c9116801561044c575b60208210146102c557601f81116103e7575b50602093601f8111600114610381578091929394600091610376575b508160011b916000199060031b1c1916176002555b600160065560fa6013556001600160a01b0316908115610331576001600160a01b03169081156102fb5761013d336104a9565b5061014733610525565b50610151336105bd565b5061015b33610655565b5082516001600160401b0381116102e557601654600181811c911680156102db575b60208210146102c557601f8111610260575b506020601f82116001146101f957819293946000926101ee575b50508160011b916000199060031b1c1916176016555b60018060a01b0319601454161760145560018060a01b031960155416176015556040516149ac90816107128239f35b0151905038806101a9565b601f198216906016600052806000209160005b8181106102485750958360019596971061022f575b505050811b016016556101bf565b015160001960f88460031b161c19169055388080610221565b9192602060018192868b01518155019401920161020c565b60166000527fd833147d7dc355ba459fc788f669e58cfaf9dc25ddcd0702e87d69c7b5124289601f830160051c810191602084106102bb575b601f0160051c01905b8181106102af575061018f565b600081556001016102a2565b9091508190610299565b634e487b7160e01b600052602260045260246000fd5b90607f169061017d565b634e487b7160e01b600052604160045260246000fd5b60405162461bcd60e51b815260206004820152600e60248201526d496e76616c696420657363726f7760901b6044820152606490fd5b60405162461bcd60e51b815260206004820152601560248201527f496e76616c69642066656520726563697069656e7400000000000000000000006044820152606490fd5b9050840151386100f5565b601f198116946002600052806000209060005b8781106103cf575082600194959697106103b6575b5050811b0160025561010a565b86015160001960f88460031b161c1916905538806103a9565b9091602060018192858a015181550193019101610394565b60026000527f405787fa12a823e0f2b7631cc41b3ba8828b3321ca811111fa75cd3aa3bb5ace601f860160051c81019160208710610442575b601f0160051c01905b81811061043657506100d9565b60008155600101610429565b9091508190610420565b90607f16906100c7565b8060208092840101518282870101520161007b565b600080fd5b6040519190601f01601f191682016001600160401b038111838210176102e557604052565b51906001600160a01b038216820361046b57565b6001600160a01b038116600090815260008051602061511e833981519152602052604090205460ff1661051f576001600160a01b0316600081815260008051602061511e83398151915260205260408120805460ff191660011790553391906000805160206150be8339815191528180a4600190565b50600090565b6001600160a01b03811660009081526000805160206150de833981519152602052604090205460ff1661051f576001600160a01b031660008181526000805160206150de83398151915260205260408120805460ff191660011790553391907f9f2df0fed2c77648de5860a4cc508cd0818c85b8b8a1ab4ceeef8d981c8956a6906000805160206150be8339815191529080a4600190565b6001600160a01b03811660009081526000805160206150fe833981519152602052604090205460ff1661051f576001600160a01b031660008181526000805160206150fe83398151915260205260408120805460ff191660011790553391907f7f5260842512b02356ff92de24be96e7e1aac2e234d9371b076ac2b4cddda61e906000805160206150be8339815191529080a4600190565b6001600160a01b03811660009081527fa8707ef04ff34f0038da728207f7538ebe1c00183b8a043220a0ac804ac15df1602052604090205460ff1661051f576001600160a01b031660008181527fa8707ef04ff34f0038da728207f7538ebe1c00183b8a043220a0ac804ac15df160205260408120805460ff191660011790553391907f68e79a7bf1e0bc45d0a330c573bc367f9cf464fd326078812f301165fbda4ef1906000805160206150be8339815191529080a460019056fe6080604052600436101561001b575b361561001957600080fd5b005b60003560e01c8062fdd58e146103fa57806301ffc9a7146103f557806307e2cea5146103f05780630cf1fbe1146103eb5780630e89341c146103e6578063107046bd146103e1578063107a274a146103dc578063126a6b6e146103d757806318160ddd146103d25780631e7dd84e146103cd578063248a9ca3146103c857806327f69b93146103c35780632eb2c2d6146103be5780632f2ff15d146103b95780632fa9c007146103b45780632fc4a937146103af578063305a67a8146103aa57806336568abe146103a55780633724f592146103a05780633a1b3d311461039b5780633f4ba83a14610396578063469048401461039157806347a3b5de1461038c5780634e1273f4146103875780634f558e791461038257806355f804b31461037d578063587c576a1461037857806358c609dc146103735780635c975abb1461036e5780635f85f6fa146103695780636a166964146103645780636c2c9c7d1461035f5780636ce12c351461035a5780636e05a0f61461035557806370876c981461035057806370c6e7671461034b5780638456cb591461034657806389025750146103415780638fe86b3f1461033c57806391d14854146103375780639407ea981461033257806395ccea671461032d578063980e2884146103285780639929ede414610323578063a217fddf1461031e578063a22cb46514610319578063a574cea414610314578063b11b32d21461030f578063bd85b0391461030a578063c692b51814610305578063d539139314610300578063d547741f146102fb578063de74e57b146102f6578063dfb309c4146102f1578063e1f1c4a7146102ec578063e3684e39146102e7578063e42a96e7146102e2578063e74b981b146102dd578063e985e9c5146102d8578063f0f3f2c8146102d3578063f242432a146102ce5763f42375b50361000e57612c18565b612b6f565b612b00565b612aaf565b612a29565b612a00565b61296a565b612871565b612845565b61279e565b61275e565b612723565b6126a4565b612678565b6125da565b61256d565b6124b4565b612498565b6122ab565b61226c565b6121d3565b612175565b61212e565b611fff565b611f97565b611f3d565b611dbf565b611c0e565b611a79565b6119ce565b6119b0565b611992565b6117a8565b611785565b611732565b61159a565b61146f565b611441565b611382565b6110dc565b6110b3565b61104a565b610f93565b610d84565b610d3e565b610c89565b610c6b565b610c12565b610b9a565b610b10565b6109a1565b61096c565b61090a565b6108ec565b61089f565b610811565b610796565b6106d3565b61057d565b610542565b6104b9565b61045a565b600435906001600160a01b038216820361041557565b600080fd5b602435906001600160a01b038216820361041557565b606435906001600160a01b038216820361041557565b35906001600160a01b038216820361041557565b3461041557604036600319011261041557602061049e6104786103ff565b6024356000526000835260406000209060018060a01b0316600052602052604060002090565b54604051908152f35b6001600160e01b031981160361041557565b34610415576020366003190112610415576004356104d6816104a7565b63ffffffff60e01b16637965db0b60e01b81149081156104ff575b506040519015158152602090f35b636cdb3d1360e11b811491508115610531575b8115610520575b50386104f1565b6301ffc9a760e01b14905038610519565b6303a24d0760e21b81149150610512565b346104155760003660031901126104155760206040517f68e79a7bf1e0bc45d0a330c573bc367f9cf464fd326078812f301165fbda4ef18152f35b346104155760603660031901126104155760043560243560443561059f613a59565b6105a7613c3f565b8260005260086020526105c06040600020541515612c9b565b8115610656577f02ba091ecd298a4e25d3918a8d657dc8831a128e39071449f114aa7e6791477591816105f7610651931515612cdf565b81600561060e876000526008602052604060002090565b01556003610626866000526009602052604060002090565b015542600461063f866000526009602052604060002090565b01556040519081529081906020820190565b0390a2005b60405162461bcd60e51b815260206004820152600d60248201526c496e76616c69642076616c756560981b6044820152606490fd5b60005b83811061069e5750506000910152565b818101518382015260200161068e565b906020916106c78151809281855285808601910161068b565b601f01601f1916010190565b34610415576020366003190112610415576107066106f2600435612d37565b6040519182916020835260208301906106ae565b0390f35b6004111561071457565b634e487b7160e01b600052602160045260246000fd5b9060048210156107145752565b9894909a99969293610120989461078f97936101408c019d8c5260018060a01b031660208c015260018060a01b031660408b015260608a0152608089015260a088015260c087015260e086015261010085019061072a565b1515910152565b34610415576020366003190112610415576004356000526008602052604060002080549061070660018060a01b036001830154169160018060a01b0360028201541693600382015491600481015460058201546006830154916008600785015494015495604051998a9960ff808a60081c169916978b610737565b3461041557602036600319011261041557600435600052600b60205260a06040600020600180831b0381541690600181015490600281015460ff60076003840154930154169260405194855260208501526040840152606083015215156080820152f35b60609060031901126104155760043590602435906044356001600160a01b03811681036104155790565b3461041557602060ff6108e06108b436610875565b6000928352600d865260408084209284529186528183206001600160a01b039091168352602052902090565b54166040519015158152f35b34610415576000366003190112610415576020600454604051908152f35b34610415576040366003190112610415576004356000908152600c602090815260408083206024358452825291829020805460018201546002830154600390930154855192835293820152928301526001600160a01b03166060820152608090f35b34610415576020366003190112610415576020610999600435600052600560205260016040600020015490565b604051908152f35b3461041557600036600319011261041557602060405162ed4e008152f35b634e487b7160e01b600052604160045260246000fd5b90601f801991011681019081106001600160401b038211176109f657604052565b6109bf565b60405190610a0b610140836109d5565b565b60405190610a0b6080836109d5565b60405190610a0b610120836109d5565b6001600160401b0381116109f65760051b60200190565b9080601f83011215610415578135610a5a81610a2c565b92610a6860405194856109d5565b81845260208085019260051b82010192831161041557602001905b828210610a905750505090565b8135815260209182019101610a83565b6001600160401b0381116109f657601f01601f191660200190565b929192610ac782610aa0565b91610ad560405193846109d5565b829481845281830111610415578281602093846000960137010152565b9080601f8301121561041557816020610b0d93359101610abb565b90565b346104155760a036600319011261041557610b296103ff565b610b3161041a565b906044356001600160401b03811161041557610b51903690600401610a43565b6064356001600160401b03811161041557610b70903690600401610a43565b90608435936001600160401b03851161041557610b94610019953690600401610af2565b93612e2b565b3461041557604036600319011261041557610019600435610bb961041a565b90610bda610bd582600052600560205260016040600020015490565b613c02565b613d4d565b634e487b7160e01b600052603260045260246000fd5b8054821015610c0d5760005260206000200190600090565b610bdf565b3461041557604036600319011261041557610c2b6103ff565b6001600160a01b031660009081526011602052604090208054602435919082101561041557602091610c5c91610bf5565b90549060031b1c604051908152f35b34610415576000366003190112610415576020604051620f42408152f35b3461041557602036600319011261041557600435610ca5613c3f565b6000908152600b6020526040902080546001600160a01b03163303610d065780610cec60076100199301610ce2610cdd825460ff1690565b612ecb565b805460ff19169055565b60026001820154910154610cfe612f04565b913330613de1565b60405162461bcd60e51b815260206004820152601060248201526f4e6f7420796f7572206c697374696e6760801b6044820152606490fd5b3461041557604036600319011261041557600435610d5a61041a565b336001600160a01b03821603610d735761001991613e37565b63334bd91960e11b60005260046000fd5b34610415576060366003190112610415576004357f5c8e94c72da12a6d6a1213edafd788896df5fd2d6527a9adeb11f8e5d0be1c4c610dc161041a565b60443590610dcd613acb565b610dd5613c3f565b610de96001600160a01b0382161515612f19565b610df4821515612f58565b610ee0610e0b856000526008602052604060002090565b92610e1884541515612c9b565b610e38610e29600886015460ff1690565b610e328161070a565b15612ecb565b610e4f610e4482612fab565b600386015490612fdd565b93610e5b851515612ffd565b610e87620f4240610e8087610e7a8b6000526003602052604060002090565b5461304a565b1115613057565b610eb684610e9f89600052600a602052604060002090565b9060018060a01b0316600052602052604060002090565b6001810192835415610f43575b610f09845491610f04610ed68a8561304a565b978892865461304a565b95610efe8b6005610ef660038a01988954612fca565b930154612fca565b9061304a565b612fdd565b90555555610f20610f18612f04565b838684613ec2565b604080516001600160a01b03909216825260208201929092529081908101610651565b610f6086610f5b8b6000526010602052604060002090565b613094565b6001600160a01b0386166000908152601160205260409020610f88908a906130d5565b6130d5565b426002830155610ec3565b34610415576040366003190112610415576004356024356004811015610415576106517f2da7b23ca63c1eb969eee5fae4acb98186abecf5358b0354a82a5183ebca6b2a91610fe0613b3d565b83600052600860205260086040600020610ffc81541515612c9b565b01611007828261310a565b600182148015611037575b611024575b5060405191829182613122565b805461ff00191661010017905538611017565b506110418261070a565b60028214611012565b3461041557600036600319011261041557611063613baf565b60075460ff8116156110a25760ff19166007557f5db9ee0a495bf2e6ff9c91a7834c1ba4fdd244a5e8aa4e537bd38aeae4b073aa6020604051338152a1005b638dfc202b60e01b60005260046000fd5b34610415576000366003190112610415576014546040516001600160a01b039091168152602090f35b34610415576040366003190112610415576004356024356110fb613fac565b611103613c3f565b6111596111546111506111496111368561112788600052600d602052604060002090565b90600052602052604060002090565b3360009081526020919091526040902090565b5460ff1690565b1590565b613132565b61117533610e9f8361112786600052600e602052604060002090565b548080156111838115613170565b6111af6111a233610e9f876111278a600052600d602052604060002090565b805460ff19166001179055565b6111c733610e9f87600052600a602052604060002090565b600481016111d684825461304a565b905560054291015561120960036111fb8661112789600052600c602052604060002090565b01546001600160a01b031690565b6001600160a01b038116611286575060009061127d575b600080809381933390f115611278577f6b854bb27e02881b6be544f8069b54c522b7c7b2db95693dc65bdcd471a6384b915b6040805191825233602083015281019190915280606081015b0390a26100196001600655565b6131c4565b506108fc611220565b6112a392506001600160a01b031690505b6001600160a01b031690565b60405163a9059cbb60e01b8152336004820152602481018390529290602090849060449082906000905af1928315611278577f6b854bb27e02881b6be544f8069b54c522b7c7b2db95693dc65bdcd471a6384b936113099160009161130e575b506131d0565b611252565b611330915060203d602011611336575b61132881836109d5565b8101906131af565b38611303565b503d61131e565b906020808351928381520192019060005b81811061135b5750505090565b825184526020938401939092019160010161134e565b906020610b0d92818152019061133d565b34610415576040366003190112610415576004356001600160401b0381116104155736602382011215610415578060040135906113be82610a2c565b916113cc60405193846109d5565b8083526024602084019160051b8301019136831161041557602401905b82821061142957836024356001600160401b038111610415576107069161141761141d923690600401610a43565b90613254565b60405191829182611371565b6020809161143684610446565b8152019101906113e9565b3461041557602036600319011261041557600435600052600360205260206040600020541515604051908152f35b34610415576020366003190112610415576004356001600160401b0381116104155736602382011215610415576114b0903690602481600401359101610abb565b6114b8613baf565b80516001600160401b0381116109f6576114dc816114d760165461288e565b6132e6565b602091601f821160011461151c5761150c9260009183611511575b50508160011b916000199060031b1c19161790565b601655005b0151905038806114f7565b6016600052601f198216927fd833147d7dc355ba459fc788f669e58cfaf9dc25ddcd0702e87d69c7b51242899160005b85811061158257508360019510611569575b505050811b01601655005b015160001960f88460031b161c1916905538808061155e565b9192602060018192868501518155019401920161154c565b3461041557608036600319011261041557610706600435807f1b9d0946c0a6f3b3a57782ad25a4553bd5bcf1f1a252068eafc757670aad573a61171f6115de61041a565b6116c26044356115ec610430565b906115f5613acb565b6115fd613c3f565b61160881151561338b565b61161c6001600160a01b03851615156133c8565b61163a611633886000526008602052604060002090565b5415613406565b620f424081049061164c82151561343b565b61167a6116576109fb565b8981526001600160a01b0387166020820152936001600160a01b03166040850152565b606083015280608083015260a08201524260c082015262ed4e0060e0820152600061010082015260006101208201526116bd866000526008602052604060002090565b61347a565b6116e360036116db866000526009602052604060002090565b016127109055565b4260046116fa866000526009602052604060002090565b0155604080516001600160a01b039092168252620f4240602083015290918291820190565b0390a26040519081529081906020820190565b3461041557604036600319011261041557600435602435906000526010602052604060002080548210156104155760209161176c91610bf5565b905460405160039290921b1c6001600160a01b03168152f35b3461041557600036600319011261041557602060ff600754166040519015158152f35b6117b136610875565b906117ba613b3d565b6117c2613fac565b6117ca613c3f565b6117e96117e1846000526008602052604060002090565b541515612c9b565b6117f4811515612f58565b6001600160a01b0382169182611923577f63d71f07eb936381fc294fbded2b933703b98e1387a0c92bc886c12ae4f117c29250611832823414613533565b61190a61184985600052600f602052604060002090565b918254926118568461356e565b9055611903611879611872886000526003602052604060002090565b5486612fdd565b916118a7611885610a0d565b878152602081018590524260408201526001600160a01b039092166060830152565b6118bf856111278a600052600c602052604060002090565b81518155602082015160018201556040820151600282015560609091015160039190910180546001600160a01b0319166001600160a01b0392909216919091179055565b8286613fce565b604080519182526020820192909252908190810161126b565b6040516323b872dd60e01b81523360048201523060248201526044810183905292602090849060649082906000905af1928315611278577f63d71f07eb936381fc294fbded2b933703b98e1387a0c92bc886c12ae4f117c29361198d9160009161130e57506131d0565b611832565b34610415576000366003190112610415576020601354604051908152f35b34610415576000366003190112610415576020601254604051908152f35b3461041557604036600319011261041557600435611a126119ed61041a565b82600052600a60205260406000209060018060a01b0316600052602052604060002090565b906000526008602052604060002090610706815491611a3a6005600183015495015485612fca565b6004820154600390920154604080519586526020860196909652948401526060830152608082019290925290819060a0820190565b8015150361041557565b346104155760e036600319011261041557610706611bad6044357f91742a83badc0799d50e43977282f20de359f1094cb0f0317c852fdb2a4c5b0a602435600435611be1611ac5610430565b94611bc860a435608435611ad882611a6f565b60c43590611ae4613c3f565b611b0888611b0033610e9f8b6000526000602052604060002090565b54101561357d565b611b13881515612f58565b611b1e8515156135c0565b611b294282116135fc565b611b67611b5f611b43896000526008602052604060002090565b611b4f81541515612c9b565b600760068201549101549061304a565b421015613639565b6012549a8b9a611b7e611b798d61356e565b601255565b611b86610a1c565b33815296602088018a9052604088018b905260608801526001600160a01b03166080870152565b60a085015260c0840152600160e08401521515610100830152565b611bdc86600052600b602052604060002090565b61366e565b611bf5611bec612f04565b83833033613de1565b604080519182526020820192909252908190810161171f565b6040366003190112610415576004357faf357506555a8fdf38c81d9a8fa2c6bca372e817f179cf596c9645902a927aea61126b602435611c4c613fac565b611c54613c3f565b611c6884600052600b602052604060002090565b6007810190611c7b610cdd835460ff1690565b611c8a60058201544210613716565b611c9a600682015484101561374c565b611d426002820191611caf8354861115613788565b80546001600160a01b0316908590611cc9338414156137c8565b611d146003820193611cdc855485612fca565b611cf3611ceb60135483612fca565b612710900490565b91611cfe8383613814565b60048601549092906001600160a01b0316614107565b611d3860018201611d29815485610cfe612f04565b5491546001600160a01b031690565b9254923391614272565b611d4d838254613814565b815554158015611d84575b611d76575b5060408051338152602081019290925290918291820190565b805460ff1916905538611d5d565b508054611d959060081c60ff161590565b611d58565b9091611db1610b0d9360408452604084019061133d565b91602081840391015261133d565b3461041557604036600319011261041557600435611ddb61041a565b611def82600052600f602052604060002090565b5460009160005b828110611ecf5750611e10611e0a8461320e565b9361320e565b9360009060005b848110611e2d5760405180610706898983611d9a565b611e4f61115061114986610e9f8561112788600052600d602052604060002090565b80611eaa575b611e62575b600101611e17565b91611ea28184611e746001948a613240565b52611e9186610e9f8761112788600052600e602052604060002090565b54611e9c828b613240565b5261356e565b929050611e5a565b50611ec784610e9f8361112786600052600e602052604060002090565b541515611e55565b611ef161115061114984610e9f856111278b600052600d602052604060002090565b80611f18575b611f04575b600101611df6565b92611f1060019161356e565b939050611efc565b50611f3582610e9f8361112789600052600e602052604060002090565b541515611ef7565b3461041557600036600319011261041557611f56613baf565b611f5e613c3f565b600160ff1960075416176007557f62e78cea01bee320cd4e420270b5ea74000d11b0c9f74754ebdbfc544b05a2586020604051338152a1005b346104155760003660031901126104155760206040517f7f5260842512b02356ff92de24be96e7e1aac2e234d9371b076ac2b4cddda61e8152f35b9181601f84011215610415578235916001600160401b038311610415576020838186019501011161041557565b34610415576040366003190112610415576004356024356001600160401b03811161041557612032903690600401611fd2565b909161203c613a59565b8060005260086020526120556040600020541515612c9b565b60005260096020526002604060002001906001600160401b0381116109f65761208881612082845461288e565b84613339565b6000601f82116001146120c75781906120b893946000926120bc5750508160011b916000199060031b1c19161790565b9055005b0135905038806114f7565b601f198216936120dc84600052602060002090565b91805b86811061211657508360019596106120fc575b505050811b019055005b0135600019600384901b60f8161c191690553880806120f2565b909260206001819286860135815501940191016120df565b3461041557604036600319011261041557602060ff6108e060043561215161041a565b906000526005845260406000209060018060a01b0316600052602052604060002090565b3461041557602036600319011261041557600435612191613baf565b6103e8811161219f57601355005b60405162461bcd60e51b815260206004820152600c60248201526b08ccaca40e8dede40d0d2ced60a31b6044820152606490fd5b346104155760403660031901126104155760006121ee6103ff565b602435906121fa613baf565b6001600160a01b03168015831461222b575081808092818115612222575b3390f11561127857005b506108fc612218565b60405163a9059cbb60e01b81523360048201526024810192909252909160209183916044918391905af18015611278576100199160009161130e57506131d0565b3461041557602061049e61227f36610875565b6000928352600e855260408084209284529185528183206001600160a01b039091168352602052902090565b34610415576040366003190112610415576004356024356122ca613fac565b6122d2613c3f565b6122dd811515612f58565b6122f981611b0033610e9f866000526000602052604060002090565b61230d826000526008602052604060002090565b61231981541515612c9b565b60088181015461232c911c60ff166138dd565b612342611b5f600683015460078401549061304a565b61239d6002612355600584015485612fca565b9261236185873361434c565b6111fb600661237e33610e9f8a600052600a602052604060002090565b6001810161238d898254613814565b905501805460ff19166001179055565b6001600160a01b0381166124095750600080808093818115612400575b3390f1156112785761126b7f4e66f070af10097c5872ca5b660c12e4e8dd39622b2989112586b186d9953817915b60408051338152602081019290925290918291820190565b506108fc6123ba565b600092916020916124529190612427906001600160a01b0316611297565b60405163a9059cbb60e01b815233600482015260248101929092529094859283919082906044820190565b03925af19081156112785761249361126b927f4e66f070af10097c5872ca5b660c12e4e8dd39622b2989112586b186d99538179460009161130e57506131d0565b6123e8565b3461041557600036600319011261041557602060405160008152f35b34610415576040366003190112610415576124cd6103ff565b6024356124d981611a6f565b6001600160a01b03821691821561255857816125176125289233600052600160205260406000209060018060a01b0316600052602052604060002090565b9060ff801983541691151516179055565b60405190151581527f17307eab39ab6107e8899845ad3d59bd9653f200f220920489ca2b5937696c3160203392a3005b62ced3e160e81b600052600060045260246000fd5b346104155760203660031901126104155760043560005260096020526125c2604060002060038101546125d06125ae60016125a7856128c8565b94016128c8565b6040519485946060865260608601906106ae565b9084820360208601526106ae565b9060408301520390f35b346104155760403660031901126104155761261e6004356125f961041a565b90600052600a60205260406000209060018060a01b0316600052602052604060002090565b805460018201546002830154600384015460048501546005860154600690960154604080519687526020870195909552938501929092526060840152608083015260a082019290925260ff909116151560c082015260e090f35b346104155760203660031901126104155760043560005260036020526020604060002054604051908152f35b34610415576080366003190112610415576004356024356001600160401b038111610415576126d7903690600401611fd2565b916044356001600160401b038111610415576126f7903690600401611fd2565b90606435946001600160401b0386116104155761271b610019963690600401611fd2565b95909461391a565b346104155760003660031901126104155760206040517f9f2df0fed2c77648de5860a4cc508cd0818c85b8b8a1ab4ceeef8d981c8956a68152f35b346104155760403660031901126104155761001960043561277d61041a565b90612799610bd582600052600560205260016040600020015490565b613e37565b34610415576020366003190112610415576004356000908152600b6020908152604091829020805460018201546002830154600384015460048501546005860154600687015460079097015489516001600160a01b0397881681529889019590955297870192909252606086015291909116608084015260a083019390935260c082015260ff808316151560e083015260089290921c909116151561010082015261012090f35b3461041557602036600319011261041557600435600052600f6020526020604060002054604051908152f35b346104155760003660031901126104155760206040516127108152f35b90600182811c921680156128be575b60208310146128a857565b634e487b7160e01b600052602260045260246000fd5b91607f169161289d565b90604051918260008254926128dc8461288e565b80845293600181169081156129485750600114612901575b50610a0b925003836109d5565b90506000929192526020600020906000915b81831061292c575050906020610a0b92820101386128f4565b6020919350806001915483858901015201910190918492612913565b905060209250610a0b94915060ff191682840152151560051b820101386128f4565b346104155760203660031901126104155760043560005260096020526129d56040600020612997816128c8565b906129a4600182016128c8565b6129f16129b3600284016128c8565b6129e3600460038601549501549360405197889760a0895260a08901906106ae565b9087820360208901526106ae565b9085820360408701526106ae565b91606084015260808301520390f35b34610415576000366003190112610415576015546040516001600160a01b039091168152602090f35b3461041557602036600319011261041557612a426103ff565b612a4a613baf565b6001600160a01b03168015612a76576bffffffffffffffffffffffff60a01b6014541617601455600080f35b60405162461bcd60e51b8152602060048201526011602482015270125b9d985b1a59081c9958da5c1a595b9d607a1b6044820152606490fd5b3461041557604036600319011261041557602060ff6108e0612acf6103ff565b612ad761041a565b6001600160a01b0391821660009081526001865260408082209290931681526020919091522090565b3461041557602036600319011261041557600435600052600860205260a0604060002060ff600180841b0360018301541691600381015490600860058201549101549160405194855260208501526040840152612b626060840183831661072a565b60081c1615156080820152f35b346104155760a036600319011261041557612b886103ff565b612b9061041a565b6064356044356084356001600160401b03811161041557612bb5903690600401610af2565b6001600160a01b038516949093903386141580612bf4575b612bdb576100199550613de1565b8563711bec9160e11b6000523360045260245260446000fd5b50600086815260016020908152604080832033845290915290205460ff1615612bcd565b3461041557602036600319011261041557612c316103ff565b612c39613baf565b6001600160a01b03168015612c65576bffffffffffffffffffffffff60a01b6015541617601555600080f35b60405162461bcd60e51b815260206004820152600e60248201526d496e76616c696420657363726f7760901b6044820152606490fd5b15612ca257565b60405162461bcd60e51b8152602060048201526015602482015274141c9bda9958dd08191bd95cdb89dd08195e1a5cdd605a1b6044820152606490fd5b15612ce657565b60405162461bcd60e51b815260206004820152601260248201527124b73b30b634b21036bab63a34b83634b2b960711b6044820152606490fd5b90612d336020928281519485920161068b565b0190565b806000526009602052612d5060026040600020016128c8565b908151612e2757612d619150613c95565b60405190816000601654612d748161288e565b9060018116908115612e035750600114612da5575b50612d9790610b0d93612d20565b03601f1981018352826109d5565b905060166000527fd833147d7dc355ba459fc788f669e58cfaf9dc25ddcd0702e87d69c7b51242896000905b828210612de75750508101602001610b0d612d89565b6020919293508060019154838589010152019101849291612dd1565b60ff191660208581019190915282151590920284019091019150610b0d9050612d89565b5090565b939291906001600160a01b0385163381141580612ea7575b612e8f576001600160a01b03821615612e795715612e6457610a0b94614405565b626a0d4560e21b600052600060045260246000fd5b632bfa23e760e11b600052600060045260246000fd5b63711bec9160e11b6000523360045260245260446000fd5b50600081815260016020908152604080832033845290915290205460ff1615612e43565b15612ed257565b60405162461bcd60e51b815260206004820152600a6024820152694e6f742061637469766560b01b6044820152606490fd5b60405190612f136020836109d5565b60008252565b15612f2057565b60405162461bcd60e51b815260206004820152601060248201526f24b73b30b634b21034b73b32b9ba37b960811b6044820152606490fd5b15612f5f57565b60405162461bcd60e51b815260206004820152600e60248201526d125b9d985b1a5908185b5bdd5b9d60921b6044820152606490fd5b634e487b7160e01b600052601160045260246000fd5b90620f4240820291808304620f42401490151715612fc557565b612f95565b81810292918115918404141715612fc557565b8115612fe7570490565b634e487b7160e01b600052601260045260246000fd5b1561300457565b60405162461bcd60e51b815260206004820152601060248201526f105b5bdd5b9d081d1bdbc81cdb585b1b60821b6044820152606490fd5b6030019081603011612fc557565b91908201809211612fc557565b1561305e57565b60405162461bcd60e51b815260206004820152600e60248201526d4578636565647320737570706c7960901b6044820152606490fd5b8054600160401b8110156109f6576130b191600182018155610bf5565b81546001600160a01b0393841660039290921b91821b9390911b1916919091179055565b8054600160401b8110156109f6576130f291600182018155610bf5565b819291549060031b91821b91600019901b1916179055565b9060048110156107145760ff80198354169116179055565b602081019291610a0b919061072a565b1561313957565b60405162461bcd60e51b815260206004820152600f60248201526e105b1c9958591e4818db185a5b5959608a1b6044820152606490fd5b1561317757565b60405162461bcd60e51b815260206004820152601060248201526f4e6f7468696e6720746f20636c61696d60801b6044820152606490fd5b908160209103126104155751610b0d81611a6f565b6040513d6000823e3d90fd5b156131d757565b60405162461bcd60e51b815260206004820152600f60248201526e151c985b9cd9995c8819985a5b1959608a1b6044820152606490fd5b9061321882610a2c565b61322560405191826109d5565b8281528092613236601f1991610a2c565b0190602036910137565b8051821015610c0d5760209160051b010190565b919091805183518082036132cf57505061326e815161320e565b9060005b81518110156132c857806132b660019260051b60208082870101519189010151600052600060205260406000209060018060a01b0316600052602052604060002090565b546132c18286613240565b5201613272565b5090925050565b635b05999160e01b60005260045260245260446000fd5b601f81116132f2575050565b60166000526020600020906020601f840160051c8301931061332f575b601f0160051c01905b818110613323575050565b60008155600101613318565b909150819061330f565b601f821161334657505050565b6000526020600020906020601f840160051c83019310613381575b601f0160051c01905b818110613375575050565b6000815560010161336a565b9091508190613361565b1561339257565b60405162461bcd60e51b815260206004820152600e60248201526d125b9d985b1a59081d185c99d95d60921b6044820152606490fd5b156133cf57565b60405162461bcd60e51b815260206004820152600f60248201526e24b73b30b634b21031b932b0ba37b960891b6044820152606490fd5b1561340d57565b60405162461bcd60e51b815260206004820152600660248201526545786973747360d01b6044820152606490fd5b1561344257565b60405162461bcd60e51b815260206004820152601060248201526f15185c99d95d081d1bdbc81cdb585b1b60821b6044820152606490fd5b8151815560208201516001820180546001600160a01b039283166001600160a01b0319918216179091556040840151600284018054919093169116179055606082015160038201556080820151600482015560a0820151600582015560c0820151600682015560e08201516007820155610100820151610a0b9260089092019161351d916101209190613516906135108161070a565b8561310a565b0151151590565b815461ff00191690151560081b61ff0016179055565b1561353a57565b60405162461bcd60e51b815260206004820152600c60248201526b08aa89040dad2e6dac2e8c6d60a31b6044820152606490fd5b6000198114612fc55760010190565b1561358457565b60405162461bcd60e51b8152602060048201526014602482015273496e73756666696369656e742062616c616e636560601b6044820152606490fd5b156135c757565b60405162461bcd60e51b815260206004820152600d60248201526c496e76616c696420707269636560981b6044820152606490fd5b1561360357565b60405162461bcd60e51b815260206004820152600e60248201526d496e76616c69642065787069727960901b6044820152606490fd5b1561364057565b60405162461bcd60e51b8152602060048201526006602482015265131bd8dad95960d21b6044820152606490fd5b815181546001600160a01b0319166001600160a01b03909116178155610a0b919061351d906101009060079060208501516001820155604085015160028201556060850151600382015560808501516004820180546001600160a01b0319166001600160a01b0390921691909117905560a0850151600582015560c08501516006820155019261351661370460e0830151151590565b859060ff801983541691151516179055565b1561371d57565b60405162461bcd60e51b8152602060048201526007602482015266115e1c1a5c995960ca1b6044820152606490fd5b1561375357565b60405162461bcd60e51b815260206004820152600d60248201526c42656c6f77206d696e696d756d60981b6044820152606490fd5b1561378f57565b60405162461bcd60e51b81526020600482015260116024820152704578636565647320617661696c61626c6560781b6044820152606490fd5b156137cf57565b60405162461bcd60e51b815260206004820152600e60248201526d21b0b73737ba10313abc9037bbb760911b6044820152606490fd5b600019810191908211612fc557565b91908203918211612fc557565b9092916001600160401b0381116109f65761384081612082845461288e565b6000601f82116001146138755781906138719394956000926120bc5750508160011b916000199060031b1c19161790565b9055565b601f1982169461388a84600052602060002090565b91805b8781106138c55750836001959697106138ab575b505050811b019055565b0135600019600384901b60f8161c191690553880806138a1565b9092602060018192868601358155019401910161388d565b156138e457565b60405162461bcd60e51b815260206004820152600e60248201526d4e6f742072656465656d61626c6560901b6044820152606490fd5b92909695949391613929613acb565b8360005260086020526139426040600020541515612c9b565b8360005260096020526040600020906001600160401b0381116109f65761396d81612082845461288e565b6000601f82116001146139dc57926139cc926139ad836139c6979460029997610a0b9d9e6000926120bc5750508160011b916000199060031b1c19161790565b90555b60016139c6856000526009602052604060002090565b01613821565b6000526009602052604060002090565b601f198216906139f184600052602060002090565b91815b818110613a415750836002989693610a0b9c9d6139cc97946139c69a9760019510613a27575b505050811b0190556139b0565b0135600019600384901b60f8161c19169055388080613a1a565b91926020600181928f870135815501940192016139f4565b3360009081527f9f7e97e508b23ad2963b7773a3eb8e52a272f9b7bb51b233f851e81525ebd60e602052604090205460ff1615613a9257565b63e2517d3f60e01b600052336004527f7f5260842512b02356ff92de24be96e7e1aac2e234d9371b076ac2b4cddda61e60245260446000fd5b3360009081527f15a28d26fa1bf736cf7edc9922607171ccb09c3c73b808e7772a3013e068a522602052604090205460ff1615613b0457565b63e2517d3f60e01b600052336004527f9f2df0fed2c77648de5860a4cc508cd0818c85b8b8a1ab4ceeef8d981c8956a660245260446000fd5b3360009081527fa8707ef04ff34f0038da728207f7538ebe1c00183b8a043220a0ac804ac15df1602052604090205460ff1615613b7657565b63e2517d3f60e01b600052336004527f68e79a7bf1e0bc45d0a330c573bc367f9cf464fd326078812f301165fbda4ef160245260446000fd5b3360009081527f05b8ccbb9d4d8fb16ea74ce3c29a41f1b461fbdaff4714a0d9a8eb05499746bc602052604090205460ff1615613be857565b63e2517d3f60e01b60005233600452600060245260446000fd5b600081815260056020908152604080832033845290915290205460ff1615613c275750565b63e2517d3f60e01b6000523360045260245260446000fd5b60ff60075416613c4b57565b63d93c066560e01b60005260046000fd5b90613c6682610aa0565b613c7360405191826109d5565b8281528092613236601f1991610aa0565b908151811015610c0d570160200190565b908115613d2c57600082805b613d0d575080613cb18492613c5c565b915b613cbc57509150565b613cc8613d0691613805565b93613cf1613ce1613cdb600a840661303c565b60ff1690565b60f81b6001600160f81b03191690565b60001a613cfe8685613c84565b53600a900490565b9283613cb3565b9290613d1b613d239161356e565b93600a900490565b80939193613ca1565b9050604051613d3c6040826109d5565b60018152600360fc1b602082015290565b60008181526005602090815260408083206001600160a01b038616845290915290205460ff16613dda5760008181526005602090815260408083206001600160a01b03861684529091529020805460ff1916600117905533916001600160a01b0316907f2f8788117e7eff1d82e926ec794901d17c78024a50270940304540a733656f0d600080a4600190565b5050600090565b92939290916001600160a01b03831615612e79576001600160a01b03821615612e6457610a0b94613e2f60405192600184526020840152604083019160018352606084015260808301604052565b929091614405565b60008181526005602090815260408083206001600160a01b038616845290915290205460ff1615613dda5760008181526005602090815260408083206001600160a01b03861684529091529020805460ff1916905533916001600160a01b0316907ff6391f5c32d9c69d2a47ea670b442974b53935d1edc7fd64eb21e047a839171b600080a4600190565b93916001600160a01b03851615612e7957613efa60405192600184526020840152604083019160018352606084015260808301604052565b909160ff60075416613c4b57613f1382848760006147b0565b600094855b8451871015613f6657613f5e6001918860051b90613f4c602080848a010151938a0101516000526003602052604060002090565b613f5783825461304a565b905561304a565b960195613f18565b613f80919594929650613f7b9060045461304a565b600455565b8051600103613fa05790602080610a0b9593015191015191600033614710565b610a0b936000336145db565b600260065414613fbd576002600655565b633ee5aeb560e01b60005260046000fd5b9081600052601060205260406000209283549360005b858110613ff357505050505050565b8061400060019284610bf5565b838060a01b0391549060031b1c16866000526000602052846140388260406000209060018060a01b0316600052602052604060002090565b5480614048575b50505001613fe4565b6140779161405591612fca565b9188600052600e602052610e9f88604060002090600052602052604060002090565b5538848161403f565b1561408757565b60405162461bcd60e51b815260206004820152601660248201527514d95b1b195c881d1c985b9cd9995c8819985a5b195960521b6044820152606490fd5b156140cc57565b60405162461bcd60e51b8152602060048201526013602482015272119959481d1c985b9cd9995c8819985a5b1959606a1b6044820152606490fd5b6001600160a01b031680614181575060008093819361412883943414613533565b82908215614177575b6001600160a01b031690f1156112785760008080809361415e61129761129760145460018060a01b031690565b82821561416e575bf11561127857565b506108fc614166565b6108fc9150614131565b6040516323b872dd60e01b81523360048201526001600160a01b03939093166024840152604483019390935250916020836064816000865af1918215611278576141d960209361421a95600091614255575b50614080565b6014546040516323b872dd60e01b81523360048201526001600160a01b03909116602482015260448101929092529092839190829060009082906064820190565b03925af1801561127857610a0b91600091614236575b506140c5565b61424f915060203d6020116113365761132881836109d5565b38614230565b61426c9150853d87116113365761132881836109d5565b386141d3565b9192939082600052600a60205261429f8460406000209060018060a01b0316600052602052604060002090565b91600183019484865415614307575b5050845493868501808611612fc557613871966001966142eb83610f04610e9f97610efe8e6142e560036142fe9e01978854612fca565b92612fca565b905555600052600a602052604060002090565b01918254613814565b610f8361433f92826000526010602052614325816040600020613094565b6001600160a01b0316600090815260116020526040902090565b42600284015538846142ae565b92916001600160a01b03841615612e645761438460405192600184526020840152604083019160018352606084015260808301604052565b602093600060405161439687826109d5565b5260ff60075416613c4b57818360006143ae936147b0565b600090815b83518310156143f2576001908360051b906143e38880848701015193880101516000526003602052604060002090565b828154039055019201916143b3565b92505050610a0b91925060045403600455565b9193929060ff60075416613c4b5761441f828683866147b0565b6001600160a01b038316156144e5575b6001600160a01b0381161580614484575b1561444d575b5050505050565b8451600103614473576020806144699601519201519233614710565b3880808080614446565b61447f949192336145db565b614469565b94936000939091845b86518610156144cd576001908660051b906144be602080848a010151938b0101516000526003602052604060002090565b8281540390550195019461448d565b6144e09193969792955060045403600455565b614440565b9392600092835b8551851015614528576145206001918660051b90613f4c602080848a010151938b0101516000526003602052604060002090565b9401936144ec565b61453e919450613f7b909692959660045461304a565b61442f565b908160209103126104155751610b0d816104a7565b6001600160a01b0391821681529116602082015260a060408201819052610b0d949193919261459d929161458f919086019061133d565b90848203606086015261133d565b9160808184039101526106ae565b3d156145d6573d906145bc82610aa0565b916145ca60405193846109d5565b82523d6000602084013e565b606090565b9091949293853b6145ef575b505050505050565b60209361461191604051968795869563bc197c8160e01b875260048701614558565b038160006001600160a01b0387165af1600091816146a6575b5061466657506146386145ab565b805191908261465f57632bfa23e760e11b6000526001600160a01b03821660045260246000fd5b6020915001fd5b6001600160e01b0319166343e6837f60e01b0161468957503880808080806145e7565b632bfa23e760e11b6000526001600160a01b031660045260246000fd5b6146c991925060203d6020116146d0575b6146c181836109d5565b810190614543565b903861462a565b503d6146b7565b6001600160a01b039182168152911660208201526040810191909152606081019190915260a060808201819052610b0d929101906106ae565b9091949293853b61472357505050505050565b60209361474591604051968795869563f23a6e6160e01b8752600487016146d7565b038160006001600160a01b0387165af16000918161478f575b5061476c57506146386145ab565b6001600160e01b031916630dc5919f60e01b0161468957503880808080806145e7565b6147a991925060203d6020116146d0576146c181836109d5565b903861475e565b939291805183519081810361495f57505060005b81518110156148b9578060051b90602080838501015192860101518460018060a01b038916614836575b6001936001600160a01b038216614809575b505050016147c4565b61482c91610e9f614824926000526000602052604060002090565b91825461304a565b9055388481614800565b50909161485188610e9f836000526000602052604060002090565b548281106148825782916001949387920361487a8b610e9f846000526000602052604060002090565b5593506147ee565b6040516303dee4c560e01b81526001600160a01b038a16600482015260248101919091526044810183905260648101829052608490fd5b50805193949391929160010361491c576020908101519181015160408051938452918301526001600160a01b03928316939092169133917fc3d58168c5ae7397731d063d5bbf3d657854427343f4c083240f7aacaa2d0f6291819081015b0390a4565b6040516001600160a01b03938416949093169233927f4a39dc06d4c0dbc64b70af90fd698a233a518aa5d07e595d983b8c0526c8f7fb9282916149179183611d9a565b635b05999160e01b60005260045260245260446000fdfea264697066735822122074d4d93f49d1632460459dffc98ac0373cb019b28ebcb74264a1039d282bb79b64736f6c634300081c00332f8788117e7eff1d82e926ec794901d17c78024a50270940304540a733656f0d15a28d26fa1bf736cf7edc9922607171ccb09c3c73b808e7772a3013e068a5229f7e97e508b23ad2963b7773a3eb8e52a272f9b7bb51b233f851e81525ebd60e05b8ccbb9d4d8fb16ea74ce3c29a41f1b461fbdaff4714a0d9a8eb05499746bc",
  "linkReferences": {},
  "deployedLinkReferences": {},
  "immutableReferences": {},
  "inputSourceName": "project/contracts/InvestmentNFT.sol",
  "buildInfoId": "solc-0_8_28-da22c518729d73371a005336a2da6fd9527f4f7e"
}