{
  "_format": "hh3-artifact-1",
  "contractName": "Voting",
  "sourceName": "contracts/Voting.sol",
  "abi": [
    {
      "inputs": [
        {
          "internalType": "address",
          "name": "_governanceToken",
          "type": "address"
        },
        {
          "internalType": "address",
          "name": "_escrowContract",
          "type": "address"
        },
        {
          "internalType": "address",
          "name": "_nftContract",
          "type": "address"
        }
      ],
      "stateMutability": "nonpayable",
      "type": "constructor"
    },
    {
      "inputs": [],
      "name": "AccessControlBadConfirmation",
      "type": "error"
    },
    {
      "inputs": [
        {
          "internalType": "address",
          "name": "account",
          "type": "address"
        },
        {
          "internalType": "bytes32",
          "name": "neededRole",
          "type": "bytes32"
        }
      ],
      "name": "AccessControlUnauthorizedAccount",
      "type": "error"
    },
    {
      "inputs": [],
      "name": "EnforcedPause",
      "type": "error"
    },
    {
      "inputs": [],
      "name": "ExpectedPause",
      "type": "error"
    },
    {
      "inputs": [],
      "name": "ReentrancyGuardReentrantCall",
      "type": "error"
    },
    {
      "inputs": [
        {
          "internalType": "address",
          "name": "token",
          "type": "address"
        }
      ],
      "name": "SafeERC20FailedOperation",
      "type": "error"
    },
    {
      "anonymous": false,
      "inputs": [
        {
          "indexed": false,
          "internalType": "address",
          "name": "account",
          "type": "address"
        }
      ],
      "name": "Paused",
      "type": "event"
    },
    {
      "anonymous": false,
      "inputs": [
        {
          "indexed": true,
          "internalType": "uint256",
          "name": "proposalId",
          "type": "uint256"
        },
        {
          "indexed": true,
          "internalType": "address",
          "name": "canceller",
          "type": "address"
        }
      ],
      "name": "ProposalCancelled",
      "type": "event"
    },
    {
      "anonymous": false,
      "inputs": [
        {
          "indexed": true,
          "internalType": "uint256",
          "name": "proposalId",
          "type": "uint256"
        },
        {
          "indexed": true,
          "internalType": "address",
          "name": "proposer",
          "type": "address"
        },
        {
          "indexed": false,
          "internalType": "string",
          "name": "description",
          "type": "string"
        },
        {
          "indexed": false,
          "internalType": "uint256",
          "name": "targetAmount",
          "type": "uint256"
        },
        {
          "indexed": false,
          "internalType": "uint256",
          "name": "endTime",
          "type": "uint256"
        }
      ],
      "name": "ProposalCreated",
      "type": "event"
    },
    {
      "anonymous": false,
      "inputs": [
        {
          "indexed": true,
          "internalType": "uint256",
          "name": "proposalId",
          "type": "uint256"
        },
        {
          "indexed": false,
          "internalType": "bool",
          "name": "success",
          "type": "bool"
        }
      ],
      "name": "ProposalExecuted",
      "type": "event"
    },
    {
      "anonymous": false,
      "inputs": [
        {
          "indexed": false,
          "internalType": "uint256",
          "name": "newQuorum",
          "type": "uint256"
        }
      ],
      "name": "QuorumUpdated",
      "type": "event"
    },
    {
      "anonymous": false,
      "inputs": [
        {
          "indexed": true,
          "internalType": "bytes32",
          "name": "role",
          "type": "bytes32"
        },
        {
          "indexed": true,
          "internalType": "bytes32",
          "name": "previousAdminRole",
          "type": "bytes32"
        },
        {
          "indexed": true,
          "internalType": "bytes32",
          "name": "newAdminRole",
          "type": "bytes32"
        }
      ],
      "name": "RoleAdminChanged",
      "type": "event"
    },
    {
      "anonymous": false,
      "inputs": [
        {
          "indexed": true,
          "internalType": "bytes32",
          "name": "role",
          "type": "bytes32"
        },
        {
          "indexed": true,
          "internalType": "address",
          "name": "account",
          "type": "address"
        },
        {
          "indexed": true,
          "internalType": "address",
          "name": "sender",
          "type": "address"
        }
      ],
      "name": "RoleGranted",
      "type": "event"
    },
    {
      "anonymous": false,
      "inputs": [
        {
          "indexed": true,
          "internalType": "bytes32",
          "name": "role",
          "type": "bytes32"
        },
        {
          "indexed": true,
          "internalType": "address",
          "name": "account",
          "type": "address"
        },
        {
          "indexed": true,
          "internalType": "address",
          "name": "sender",
          "type": "address"
        }
      ],
      "name": "RoleRevoked",
      "type": "event"
    },
    {
      "anonymous": false,
      "inputs": [
        {
          "indexed": true,
          "internalType": "uint256",
          "name": "proposalId",
          "type": "uint256"
        },
        {
          "indexed": true,
          "internalType": "address",
          "name": "staker",
          "type": "address"
        },
        {
          "indexed": false,
          "internalType": "uint256",
          "name": "amount",
          "type": "uint256"
        }
      ],
      "name": "StakeUnlocked",
      "type": "event"
    },
    {
      "anonymous": false,
      "inputs": [
        {
          "indexed": true,
          "internalType": "uint256",
          "name": "proposalId",
          "type": "uint256"
        },
        {
          "indexed": true,
          "internalType": "address",
          "name": "staker",
          "type": "address"
        },
        {
          "indexed": false,
          "internalType": "uint256",
          "name": "amount",
          "type": "uint256"
        }
      ],
      "name": "StakeWithdrawn",
      "type": "event"
    },
    {
      "anonymous": false,
      "inputs": [
        {
          "indexed": true,
          "internalType": "address",
          "name": "token",
          "type": "address"
        },
        {
          "indexed": false,
          "internalType": "uint256",
          "name": "amount",
          "type": "uint256"
        },
        {
          "indexed": true,
          "internalType": "address",
          "name": "depositor",
          "type": "address"
        }
      ],
      "name": "TreasuryDeposit",
      "type": "event"
    },
    {
      "anonymous": false,
      "inputs": [
        {
          "indexed": true,
          "internalType": "address",
          "name": "token",
          "type": "address"
        },
        {
          "indexed": false,
          "internalType": "uint256",
          "name": "amount",
          "type": "uint256"
        },
        {
          "indexed": true,
          "internalType": "address",
          "name": "recipient",
          "type": "address"
        }
      ],
      "name": "TreasuryPayout",
      "type": "event"
    },
    {
      "anonymous": false,
      "inputs": [
        {
          "indexed": false,
          "internalType": "address",
          "name": "account",
          "type": "address"
        }
      ],
      "name": "Unpaused",
      "type": "event"
    },
    {
      "anonymous": false,
      "inputs": [
        {
          "indexed": true,
          "internalType": "uint256",
          "name": "proposalId",
          "type": "uint256"
        },
        {
          "indexed": true,
          "internalType": "address",
          "name": "voter",
          "type": "address"
        },
        {
          "indexed": false,
          "internalType": "enum Voting.VoteChoice",
          "name": "vote",
          "type": "uint8"
        },
        {
          "indexed": false,
          "internalType": "uint256",
          "name": "amount",
          "type": "uint256"
        },
        {
          "indexed": false,
          "internalType": "uint256",
          "name": "weight",
          "type": "uint256"
        }
      ],
      "name": "VoteCast",
      "type": "event"
    },
    {
      "inputs": [],
      "name": "BASIS_POINTS",
      "outputs": [
        {
          "internalType": "uint256",
          "name": "",
          "type": "uint256"
        }
      ],
      "stateMutability": "view",
      "type": "function"
    },
    {
      "inputs": [],
      "name": "DEFAULT_ADMIN_ROLE",
      "outputs": [
        {
          "internalType": "bytes32",
          "name": "",
          "type": "bytes32"
        }
      ],
      "stateMutability": "view",
      "type": "function"
    },
    {
      "inputs": [],
      "name": "MAX_VOTING_PERIOD",
      "outputs": [
        {
          "internalType": "uint256",
          "name": "",
          "type": "uint256"
        }
      ],
      "stateMutability": "view",
      "type": "function"
    },
    {
      "inputs": [],
      "name": "MIN_STAKE_AMOUNT",
      "outputs": [
        {
          "internalType": "uint256",
          "name": "",
          "type": "uint256"
        }
      ],
      "stateMutability": "view",
      "type": "function"
    },
    {
      "inputs": [],
      "name": "MIN_VOTING_PERIOD",
      "outputs": [
        {
          "internalType": "uint256",
          "name": "",
          "type": "uint256"
        }
      ],
      "stateMutability": "view",
      "type": "function"
    },
    {
      "inputs": [],
      "name": "PROPOSER_ROLE",
      "outputs": [
        {
          "internalType": "bytes32",
          "name": "",
          "type": "bytes32"
        }
      ],
      "stateMutability": "view",
      "type": "function"
    },
    {
      "inputs": [],
      "name": "RESOLVER_ROLE",
      "outputs": [
        {
          "internalType": "bytes32",
          "name": "",
          "type": "bytes32"
        }
      ],
      "stateMutability": "view",
      "type": "function"
    },
    {
      "inputs": [],
      "name": "TREASURY_MANAGER_ROLE",
      "outputs": [
        {
          "internalType": "bytes32",
          "name": "",
          "type": "bytes32"
        }
      ],
      "stateMutability": "view",
      "type": "function"
    },
    {
      "inputs": [
        {
          "internalType": "uint256",
          "name": "_proposalId",
          "type": "uint256"
        }
      ],
      "name": "cancelProposal",
      "outputs": [],
      "stateMutability": "nonpayable",
      "type": "function"
    },
    {
      "inputs": [],
      "name": "defaultQuorum",
      "outputs": [
        {
          "internalType": "uint256",
          "name": "",
          "type": "uint256"
        }
      ],
      "stateMutability": "view",
      "type": "function"
    },
    {
      "inputs": [
        {
          "internalType": "address",
          "name": "_token",
          "type": "address"
        },
        {
          "internalType": "uint256",
          "name": "_amount",
          "type": "uint256"
        }
      ],
      "name": "depositTreasury",
      "outputs": [],
      "stateMutability": "payable",
      "type": "function"
    },
    {
      "inputs": [],
      "name": "escrowContract",
      "outputs": [
        {
          "internalType": "address",
          "name": "",
          "type": "address"
        }
      ],
      "stateMutability": "view",
      "type": "function"
    },
    {
      "inputs": [
        {
          "internalType": "address",
          "name": "_token",
          "type": "address"
        },
        {
          "internalType": "address",
          "name": "_recipient",
          "type": "address"
        },
        {
          "internalType": "uint256",
          "name": "_amount",
          "type": "uint256"
        }
      ],
      "name": "executePayout",
      "outputs": [],
      "stateMutability": "nonpayable",
      "type": "function"
    },
    {
      "inputs": [
        {
          "internalType": "uint256",
          "name": "_proposalId",
          "type": "uint256"
        }
      ],
      "name": "finalizeProposal",
      "outputs": [],
      "stateMutability": "nonpayable",
      "type": "function"
    },
    {
      "inputs": [
        {
          "internalType": "uint256",
          "name": "_proposalId",
          "type": "uint256"
        }
      ],
      "name": "getProposal",
      "outputs": [
        {
          "internalType": "address",
          "name": "proposer",
          "type": "address"
        },
        {
          "internalType": "string",
          "name": "description",
          "type": "string"
        },
        {
          "internalType": "uint256",
          "name": "targetAmount",
          "type": "uint256"
        },
        {
          "internalType": "uint256",
          "name": "yesVotes",
          "type": "uint256"
        },
        {
          "internalType": "uint256",
          "name": "noVotes",
          "type": "uint256"
        },
        {
          "internalType": "uint256",
          "name": "endTime",
          "type": "uint256"
        },
        {
          "internalType": "enum Voting.ProposalStatus",
          "name": "status",
          "type": "uint8"
        }
      ],
      "stateMutability": "view",
      "type": "function"
    },
    {
      "inputs": [
        {
          "internalType": "uint256",
          "name": "_proposalId",
          "type": "uint256"
        }
      ],
      "name": "getProposalStakers",
      "outputs": [
        {
          "internalType": "address[]",
          "name": "",
          "type": "address[]"
        }
      ],
      "stateMutability": "view",
      "type": "function"
    },
    {
      "inputs": [
        {
          "internalType": "bytes32",
          "name": "role",
          "type": "bytes32"
        }
      ],
      "name": "getRoleAdmin",
      "outputs": [
        {
          "internalType": "bytes32",
          "name": "",
          "type": "bytes32"
        }
      ],
      "stateMutability": "view",
      "type": "function"
    },
    {
      "inputs": [
        {
          "internalType": "uint256",
          "name": "_proposalId",
          "type": "uint256"
        },
        {
          "internalType": "address",
          "name": "_staker",
          "type": "address"
        }
      ],
      "name": "getStake",
      "outputs": [
        {
          "internalType": "uint256",
          "name": "amount",
          "type": "uint256"
        },
        {
          "internalType": "enum Voting.VoteChoice",
          "name": "voteChoice",
          "type": "uint8"
        },
        {
          "internalType": "uint256",
          "name": "weight",
          "type": "uint256"
        },
        {
          "internalType": "enum Voting.StakeStatus",
          "name": "status",
          "type": "uint8"
        },
        {
          "internalType": "bool",
          "name": "claimed",
          "type": "bool"
        }
      ],
      "stateMutability": "view",
      "type": "function"
    },
    {
      "inputs": [
        {
          "internalType": "address",
          "name": "_token",
          "type": "address"
        }
      ],
      "name": "getTreasuryBalance",
      "outputs": [
        {
          "internalType": "uint256",
          "name": "totalBalance",
          "type": "uint256"
        },
        {
          "internalType": "uint256",
          "name": "lockedAmount",
          "type": "uint256"
        },
        {
          "internalType": "uint256",
          "name": "availableAmount",
          "type": "uint256"
        }
      ],
      "stateMutability": "view",
      "type": "function"
    },
    {
      "inputs": [
        {
          "internalType": "address",
          "name": "_user",
          "type": "address"
        }
      ],
      "name": "getUserProposals",
      "outputs": [
        {
          "internalType": "uint256[]",
          "name": "",
          "type": "uint256[]"
        }
      ],
      "stateMutability": "view",
      "type": "function"
    },
    {
      "inputs": [
        {
          "internalType": "address",
          "name": "_voter",
          "type": "address"
        }
      ],
      "name": "getVoterInfo",
      "outputs": [
        {
          "internalType": "uint256",
          "name": "totalVotingPower",
          "type": "uint256"
        },
        {
          "internalType": "uint256",
          "name": "activeStakes",
          "type": "uint256"
        },
        {
          "internalType": "uint256",
          "name": "participationCount",
          "type": "uint256"
        },
        {
          "internalType": "bool",
          "name": "hasNFT",
          "type": "bool"
        }
      ],
      "stateMutability": "view",
      "type": "function"
    },
    {
      "inputs": [],
      "name": "governanceToken",
      "outputs": [
        {
          "internalType": "address",
          "name": "",
          "type": "address"
        }
      ],
      "stateMutability": "view",
      "type": "function"
    },
    {
      "inputs": [
        {
          "internalType": "bytes32",
          "name": "role",
          "type": "bytes32"
        },
        {
          "internalType": "address",
          "name": "account",
          "type": "address"
        }
      ],
      "name": "grantRole",
      "outputs": [],
      "stateMutability": "nonpayable",
      "type": "function"
    },
    {
      "inputs": [
        {
          "internalType": "bytes32",
          "name": "role",
          "type": "bytes32"
        },
        {
          "internalType": "address",
          "name": "account",
          "type": "address"
        }
      ],
      "name": "hasRole",
      "outputs": [
        {
          "internalType": "bool",
          "name": "",
          "type": "bool"
        }
      ],
      "stateMutability": "view",
      "type": "function"
    },
    {
      "inputs": [],
      "name": "nftContract",
      "outputs": [
        {
          "internalType": "address",
          "name": "",
          "type": "address"
        }
      ],
      "stateMutability": "view",
      "type": "function"
    },
    {
      "inputs": [],
      "name": "pause",
      "outputs": [],
      "stateMutability": "nonpayable",
      "type": "function"
    },
    {
      "inputs": [],
      "name": "paused",
      "outputs": [
        {
          "internalType": "bool",
          "name": "",
          "type": "bool"
        }
      ],
      "stateMutability": "view",
      "type": "function"
    },
    {
      "inputs": [],
      "name": "proposalCounter",
      "outputs": [
        {
          "internalType": "uint256",
          "name": "",
          "type": "uint256"
        }
      ],
      "stateMutability": "view",
      "type": "function"
    },
    {
      "inputs": [
        {
          "internalType": "uint256",
          "name": "",
          "type": "uint256"
        }
      ],
      "name": "proposalExists",
      "outputs": [
        {
          "internalType": "bool",
          "name": "",
          "type": "bool"
        }
      ],
      "stateMutability": "view",
      "type": "function"
    },
    {
      "inputs": [
        {
          "internalType": "uint256",
          "name": "",
          "type": "uint256"
        },
        {
          "internalType": "uint256",
          "name": "",
          "type": "uint256"
        }
      ],
      "name": "proposalStakers",
      "outputs": [
        {
          "internalType": "address",
          "name": "",
          "type": "address"
        }
      ],
      "stateMutability": "view",
      "type": "function"
    },
    {
      "inputs": [
        {
          "internalType": "uint256",
          "name": "",
          "type": "uint256"
        }
      ],
      "name": "proposals",
      "outputs": [
        {
          "internalType": "uint256",
          "name": "proposalId",
          "type": "uint256"
        },
        {
          "internalType": "address",
          "name": "proposer",
          "type": "address"
        },
        {
          "internalType": "string",
          "name": "description",
          "type": "string"
        },
        {
          "internalType": "uint256",
          "name": "targetAmount",
          "type": "uint256"
        },
        {
          "internalType": "address",
          "name": "targetContract",
          "type": "address"
        },
        {
          "internalType": "bytes",
          "name": "executionData",
          "type": "bytes"
        },
        {
          "internalType": "uint256",
          "name": "startTime",
          "type": "uint256"
        },
        {
          "internalType": "uint256",
          "name": "endTime",
          "type": "uint256"
        },
        {
          "internalType": "uint256",
          "name": "quorumRequired",
          "type": "uint256"
        },
        {
          "internalType": "uint256",
          "name": "yesVotes",
          "type": "uint256"
        },
        {
          "internalType": "uint256",
          "name": "noVotes",
          "type": "uint256"
        },
        {
          "internalType": "uint256",
          "name": "abstainVotes",
          "type": "uint256"
        },
        {
          "internalType": "uint256",
          "name": "totalStaked",
          "type": "uint256"
        },
        {
          "internalType": "enum Voting.ProposalStatus",
          "name": "status",
          "type": "uint8"
        },
        {
          "internalType": "bool",
          "name": "executed",
          "type": "bool"
        },
        {
          "internalType": "uint256",
          "name": "executionTime",
          "type": "uint256"
        }
      ],
      "stateMutability": "view",
      "type": "function"
    },
    {
      "inputs": [
        {
          "internalType": "string",
          "name": "_description",
          "type": "string"
        },
        {
          "internalType": "uint256",
          "name": "_targetAmount",
          "type": "uint256"
        },
        {
          "internalType": "address",
          "name": "_targetContract",
          "type": "address"
        },
        {
          "internalType": "bytes",
          "name": "_executionData",
          "type": "bytes"
        },
        {
          "internalType": "uint256",
          "name": "_votingDuration",
          "type": "uint256"
        }
      ],
      "name": "proposeProject",
      "outputs": [
        {
          "internalType": "uint256",
          "name": "",
          "type": "uint256"
        }
      ],
      "stateMutability": "nonpayable",
      "type": "function"
    },
    {
      "inputs": [
        {
          "internalType": "bytes32",
          "name": "role",
          "type": "bytes32"
        },
        {
          "internalType": "address",
          "name": "callerConfirmation",
          "type": "address"
        }
      ],
      "name": "renounceRole",
      "outputs": [],
      "stateMutability": "nonpayable",
      "type": "function"
    },
    {
      "inputs": [
        {
          "internalType": "bytes32",
          "name": "role",
          "type": "bytes32"
        },
        {
          "internalType": "address",
          "name": "account",
          "type": "address"
        }
      ],
      "name": "revokeRole",
      "outputs": [],
      "stateMutability": "nonpayable",
      "type": "function"
    },
    {
      "inputs": [
        {
          "internalType": "uint256",
          "name": "_quorum",
          "type": "uint256"
        }
      ],
      "name": "setDefaultQuorum",
      "outputs": [],
      "stateMutability": "nonpayable",
      "type": "function"
    },
    {
      "inputs": [
        {
          "internalType": "address",
          "name": "_escrow",
          "type": "address"
        }
      ],
      "name": "setEscrowContract",
      "outputs": [],
      "stateMutability": "nonpayable",
      "type": "function"
    },
    {
      "inputs": [
        {
          "internalType": "address",
          "name": "_nft",
          "type": "address"
        }
      ],
      "name": "setNFTContract",
      "outputs": [],
      "stateMutability": "nonpayable",
      "type": "function"
    },
    {
      "inputs": [
        {
          "internalType": "uint256",
          "name": "",
          "type": "uint256"
        },
        {
          "internalType": "address",
          "name": "",
          "type": "address"
        }
      ],
      "name": "stakes",
      "outputs": [
        {
          "internalType": "address",
          "name": "staker",
          "type": "address"
        },
        {
          "internalType": "uint256",
          "name": "amount",
          "type": "uint256"
        },
        {
          "internalType": "enum Voting.VoteChoice",
          "name": "vote",
          "type": "uint8"
        },
        {
          "internalType": "uint256",
          "name": "stakeTime",
          "type": "uint256"
        },
        {
          "internalType": "uint256",
          "name": "weight",
          "type": "uint256"
        },
        {
          "internalType": "enum Voting.StakeStatus",
          "name": "status",
          "type": "uint8"
        },
        {
          "internalType": "bool",
          "name": "claimed",
          "type": "bool"
        }
      ],
      "stateMutability": "view",
      "type": "function"
    },
    {
      "inputs": [
        {
          "internalType": "bytes4",
          "name": "interfaceId",
          "type": "bytes4"
        }
      ],
      "name": "supportsInterface",
      "outputs": [
        {
          "internalType": "bool",
          "name": "",
          "type": "bool"
        }
      ],
      "stateMutability": "view",
      "type": "function"
    },
    {
      "inputs": [
        {
          "internalType": "address",
          "name": "",
          "type": "address"
        }
      ],
      "name": "treasury",
      "outputs": [
        {
          "internalType": "address",
          "name": "token",
          "type": "address"
        },
        {
          "internalType": "uint256",
          "name": "totalBalance",
          "type": "uint256"
        },
        {
          "internalType": "uint256",
          "name": "lockedAmount",
          "type": "uint256"
        },
        {
          "internalType": "uint256",
          "name": "availableAmount",
          "type": "uint256"
        },
        {
          "internalType": "uint256",
          "name": "lastUpdateTime",
          "type": "uint256"
        }
      ],
      "stateMutability": "view",
      "type": "function"
    },
    {
      "inputs": [],
      "name": "unpause",
      "outputs": [],
      "stateMutability": "nonpayable",
      "type": "function"
    },
    {
      "inputs": [
        {
          "internalType": "address",
          "name": "",
          "type": "address"
        },
        {
          "internalType": "uint256",
          "name": "",
          "type": "uint256"
        }
      ],
      "name": "userProposals",
      "outputs": [
        {
          "internalType": "uint256",
          "name": "",
          "type": "uint256"
        }
      ],
      "stateMutability": "view",
      "type": "function"
    },
    {
      "inputs": [
        {
          "internalType": "uint256",
          "name": "_proposalId",
          "type": "uint256"
        },
        {
          "internalType": "enum Voting.VoteChoice",
          "name": "_voteChoice",
          "type": "uint8"
        },
        {
          "internalType": "uint256",
          "name": "_amount",
          "type": "uint256"
        }
      ],
      "name": "vote",
      "outputs": [],
      "stateMutability": "nonpayable",
      "type": "function"
    },
    {
      "inputs": [
        {
          "internalType": "address",
          "name": "",
          "type": "address"
        }
      ],
      "name": "voters",
      "outputs": [
        {
          "internalType": "uint256",
          "name": "totalVotingPower",
          "type": "uint256"
        },
        {
          "internalType": "uint256",
          "name": "activeStakes",
          "type": "uint256"
        },
        {
          "internalType": "uint256",
          "name": "participationCount",
          "type": "uint256"
        },
        {
          "internalType": "uint256",
          "name": "lastVoteTime",
          "type": "uint256"
        },
        {
          "internalType": "bool",
          "name": "hasNFT",
          "type": "bool"
        },
        {
          "internalType": "uint256",
          "name": "nftBalance",
          "type": "uint256"
        }
      ],
      "stateMutability": "view",
      "type": "function"
    },
    {
      "inputs": [
        {
          "internalType": "uint256",
          "name": "_proposalId",
          "type": "uint256"
        }
      ],
      "name": "withdrawStake",
      "outputs": [],
      "stateMutability": "nonpayable",
      "type": "function"
    },
    {
      "stateMutability": "payable",
      "type": "receive"
    }
  ],
  "bytecode": "0x608034607357601f612bc738819003918201601f19168301916001600160401b038311848410176078578084926060946040528339810103126073576040816047605893608e565b50605260208201608e565b5001608e565b506001600255611388600b55604051612b2590816100a28239f35b600080fd5b634e487b7160e01b600052604160045260246000fd5b51906001600160a01b038216820360735756fe6080806040526004361015610054575b50361561001b57600080fd5b61002434612a10565b60405134815260007fb906cc5fba109fdcd8c55ad082c1408b0cc5f0a7fa925bd9424f47816bafaf1860203393a3005b60003560e01c908163013cf08b146122665750806301ffc9a7146122105780630c0512e9146121f2578063136c7ea814611fb05780631374b22d14611f7f5780631b31527f14611f26578063215809ca14611f08578063248a9ca314611ed357806325d5971f14611d5e57806327ed718814611d3b5780632d809cb614611cce5780632f2ff15d14611c8e57806336568abe14611c485780633f4ba83a14611bdf5780635041080014611b075780635652077c1461183a57806357baeac8146117e65780635c975abb146117c357806368c5805e1461173557806370af96fb1461171757806378ef11381461165d57806378fab260146116225780637d5709eb146115855780638456cb591461152c5780638f61f4f5146114f157806391d14854146114a45780639ed1f25514611443578063a217fddf14611427578063a3ec138d146113b1578063a64e024a14611393578063a7ccabdf14611350578063a9a3bba4146112a7578063c7f758a8146111e1578063cca0face1461118f578063d547741f14611148578063d56d229d1461111f578063d7e6f31714610f8b578063e0a8f6f514610ea9578063e1f1c4a714610e8c578063e42a96e714610e63578063e520251a14610981578063e6cfc8761461033f578063ebdf690f14610304578063f42375b51461027e5763f96dae0a14610250573861000f565b3461027957600036600319011261027957600e546040516001600160a01b039091168152602090f35b600080fd5b34610279576020366003190112610279576102976124dd565b61029f6126e6565b6001600160a01b031680156102c6576001600160601b0360a01b600c541617600c55600080f35b60405162461bcd60e51b8152602060048201526016602482015275496e76616c696420657363726f77206164647265737360501b6044820152606490fd5b346102795760003660031901126102795760206040517fede9dcdb0ce99dc7cec9c7be9246ad08b37853683ad91569c187b647ddf5e21c8152f35b346102795760a03660031901126102795760043567ffffffffffffffff811161027957366023820112156102795761038190369060248160040135910161255d565b6044356001600160a01b03811690602435908290036102795760643567ffffffffffffffff81116102795736602382011215610279576103cb90369060248160040135910161255d565b91608435926103d8612774565b3360009081527f3412d5605ac6cd444957cedb533e5dacad6378b4bc819ebe3652188a665066d5602052604090205460ff161561093c578451156109005782156108c3576203f480841061087e5762278d00841161084057610449600a549461044086612665565b600a5542612658565b91600b546040519261020084019084821067ffffffffffffffff8311176107c35784928892604052828452602084019433865260408501928b845260608601928a84526080870192835260a0870191825260c0870142815260e08801908b82526101008901928352610120890193600085526101408a0195600087526101608b0197600089526101808c019960008b526101a08d019c60018e526101c0019e8f600090526101e081019c60008e52600052600360205260406000209e8f91518255600160a01b600190039051166001820190600160a01b60019003166001600160601b0360a01b825416179055600201905180519067ffffffffffffffff82116107c3576105618261055b85546123b0565b85612674565b602090601f83116001146107d957610592929160009183610751575b50508160011b916000199060031b1c19161790565b90555b5160038d01555160048c0180546001600160a01b0319166001600160a01b039290921691909117905551805160058c019167ffffffffffffffff82116107c3576105e38261055b85546123b0565b602090601f831160011461075c576106139291600091836107515750508160011b916000199060031b1c19161790565b90555b5160068a015551600789015551600888015551600987015551600a86015551600b85015551600c840155600d8301915193600685101561073b578254905161ff0090151560081b1660ff9590951661ffff1990911617939093179055600091600e9051910155838152600960205260408120600160ff19825416179055338152600860205260408120805491600160401b83101561072757509484926106e58360209860017f6c98a8c940418b35614f0cd02412d5c9606faff474cbb6cdd6640ba5d1a9f06b96018155612509565b81549060031b9086821b91600019901b191617905561070f6040519260608452606084019061248f565b948783015260408201528033940390a3604051908152f35b634e487b7160e01b81526041600452602490fd5b634e487b7160e01b600052602160045260246000fd5b01519050388061057d565b90601f1983169184600052816000209260005b8181106107ab5750908460019594939210610792575b505050811b019055610616565b015160001960f88460031b161c19169055388080610785565b9293602060018192878601518155019501930161076f565b634e487b7160e01b600052604160045260246000fd5b90601f1983169184600052816000209260005b818110610828575090846001959493921061080f575b505050811b019055610595565b015160001960f88460031b161c19169055388080610802565b929360206001819287860151815501950193016107ec565b60405162461bcd60e51b8152602060048201526016602482015275566f74696e6720706572696f6420746f6f206c6f6e6760501b6044820152606490fd5b60405162461bcd60e51b815260206004820152601760248201527f566f74696e6720706572696f6420746f6f2073686f72740000000000000000006044820152606490fd5b60405162461bcd60e51b8152602060048201526015602482015274125b9d985b1a59081d185c99d95d08185b5bdd5b9d605a1b6044820152606490fd5b60405162461bcd60e51b815260206004820152601460248201527311195cd8dc9a5c1d1a5bdb881c995c5d5a5c995960621b6044820152606490fd5b60405162461bcd60e51b815260206004820152601960248201527f4e6f7420617574686f72697a656420746f2070726f706f7365000000000000006044820152606490fd5b34610279576060366003190112610279576024356004356003821015610279576044356109ac6126c6565b6109b4612774565b8160005260096020526109ce60ff604060002054166125d1565b670de0b6b3a76400008110610e2e576109e683612537565b8215801590610e26575b15610de15781600052600360205260406000209060ff600d83015416600681101561073b576001610a219114612616565b6007820154421015610dad576000838152600460209081526040808320338452909152902060010154610d7857336000908152600660205260409020600d54919283926001600160a01b031680610cc7575b50600e54600c54610a949185916001600160a01b03908116913391166129c5565b60405160e081019080821067ffffffffffffffff8311176107c357610b9b916040523381526020810185815260056040830192610ad08b612537565b8a84524260608201908152608082018a8152600060a0840181815260c085018281528e8352600460209081526040808520338652909152909220945185546001600160a01b0319166001600160a01b03919091161785559551600185015595519495949091906002840190610b4481612537565b610b4d81612537565b60ff80198354169116179055516003830155516004820155019151610b7181612537565b610b7a81612537565b8254915161ffff1990921660ff919091161790151560081b61ff0016179055565b846000526005602052604060002090815491600160401b8310156107c35782610bcb916001600c95018155612509565b81546001600160a01b0360039290921b91821b19163390911b179055610bf087612537565b60018703610c915760098101610c07868254612658565b90555b01610c16838254612658565b9055610c23838254612658565b815560018101610c338154612665565b905560028101610c438154612665565b905560034291015560405193610c5881612537565b8452602084015260408301527f6e8bd44a147cd07b025b7748fc3704d4c79fce242883c53a90dcf5c05189c68960603393a36001600255005b610c9a87612537565b60028703610cb857600a8101610cb1868254612658565b9055610c0a565b600b8101610cb1868254612658565b6020602491604051928380926370a0823160e01b82523360048301525afa60009181610d44575b5015610a73578015610a735790935060048201600160ff198254161790556005820155600f8202828104600f1483151715610d2e57600a90049286610a73565b634e487b7160e01b600052601160045260246000fd5b9091506020813d602011610d70575b81610d606020938361246d565b8101031261027957519088610cee565b3d9150610d53565b60405162461bcd60e51b815260206004820152600d60248201526c105b1c9958591e481d9bdd1959609a1b6044820152606490fd5b60405162461bcd60e51b815260206004820152600c60248201526b159bdd1a5b99c8195b99195960a21b6044820152606490fd5b60405162461bcd60e51b815260206004820152601860248201527f43616e6e6f74207374616b6520666f72206162737461696e00000000000000006044820152606490fd5b5080156109f0565b60405162461bcd60e51b815260206004820152600d60248201526c5374616b6520746f6f206c6f7760981b6044820152606490fd5b3461027957600036600319011261027957600c546040516001600160a01b039091168152602090f35b346102795760003660031901126102795760206040516127108152f35b3461027957602036600319011261027957600435610ec56126e6565b806000526009602052610edf60ff604060002054166125d1565b806000526003602052600d60406000200160ff815416600681101561073b5760018114908115610f82575b5015610f4d57805460ff19166005179055610f248161289e565b33907f74c34a008ce735d9fcf0bd03a9b238d212ad4c441c020661f4ffbb6442645b85600080a3005b60405162461bcd60e51b815260206004820152600d60248201526c10d85b9b9bdd0818d85b98d95b609a1b6044820152606490fd5b90501583610f0a565b604036600319011261027957610f9f6124dd565b60243590610fab6126c6565b610fb3612774565b811590811582611116575b610fc790612594565b6001600160a01b0316908161105157505050341561101e57610fe834612a10565b60405134815260007fb906cc5fba109fdcd8c55ad082c1408b0cc5f0a7fa925bd9424f47816bafaf1860203393a35b6001600255005b60405162461bcd60e51b815260206004820152600b60248201526a139bc8115512081cd95b9d60aa1b6044820152606490fd5b6110da57611061823033846129c5565b8060005260076020526040600020816001600160601b0360a01b82541617815560018101611090848254612658565b9055600381016110a1848254612658565b90556004429101556040519182527fb906cc5fba109fdcd8c55ad082c1408b0cc5f0a7fa925bd9424f47816bafaf1860203393a3611017565b60405162461bcd60e51b8152602060048201526014602482015273125b9d985b1a59081d1bdad95b88185b5bdd5b9d60621b6044820152606490fd5b50341515610fbe565b3461027957600036600319011261027957600d546040516001600160a01b039091168152602090f35b346102795760403660031901126102795761118d6004356111676124f3565b9061118861118382600052600060205260016040600020015490565b612739565b61281c565b005b3461027957604036600319011261027957602435600435600052600560205260406000208054821015610279576020916111c891612509565b905460405160039290921b1c6001600160a01b03168152f35b346102795760203660031901126102795760043580600052600960205261120f60ff604060002054166125d1565b60005260036020526002604060002060018060a01b03600182015416906112a36003820154916009810154600a82015460078301549161126860ff600d8601541694611261604051809b8193016123ea565b038961246d565b611284604051988998895260e060208a015260e089019061248f565b9560408801526060870152608086015260a085015260c08401906124d0565b0390f35b346102795760403660031901126102795760e060406112c46124f3565b60043560005260046020528160002060009160018060a01b031682526020522060ff60018060a01b0382541691600181015482600283015416916003810154600560048301549201549385851693604051978852602088015261132681612537565b60408701526060860152608085015261133e81612537565b60a084015260081c16151560c0820152f35b34610279576020366003190112610279576113696124dd565b6113716126e6565b600d80546001600160a01b0319166001600160a01b0392909216919091179055005b3461027957600036600319011261027957602060405162278d008152f35b34610279576020366003190112610279576001600160a01b036113d26124dd565b16600052600660205260c060406000208054906001810154906002810154600382015490600560ff600485015416930154936040519586526020860152604085015260608401521515608083015260a0820152f35b3461027957600036600319011261027957602060405160008152f35b34610279576020366003190112610279576001600160a01b036114646124dd565b1660005260066020526080604060002080549060018101549060ff6004600283015492015416916040519384526020840152604083015215156060820152f35b34610279576040366003190112610279576114bd6124f3565b600435600052600060205260406000209060018060a01b0316600052602052602060ff604060002054166040519015158152f35b346102795760003660031901126102795760206040517fb09aa5aeb3702cfd50b6b62bc4532604938f21248a27a1d5ca736082b6819cc18152f35b34610279576000366003190112610279576115456126e6565b61154d612774565b600160ff19815416176001557f62e78cea01bee320cd4e420270b5ea74000d11b0c9f74754ebdbfc544b05a2586020604051338152a1005b34610279576020366003190112610279576004356115a16126e6565b80151580611616575b156115e0576020817ff18f88786aae85a652aadb99a82462616489a33370c9bcc7b245906812ef7cd192600b55604051908152a1005b60405162461bcd60e51b815260206004820152600e60248201526d496e76616c69642071756f72756d60901b6044820152606490fd5b506127108111156115aa565b346102795760003660031901126102795760206040517f92a19c77d2ea87c7f81d50c74403cb2f401780f3ad919571121efe2bdb427eb18152f35b34610279576020366003190112610279576001600160a01b0361167e6124dd565b16600052600860205260406000206040518060208354918281520190819360005260206000209060005b81811061170157505050816116be91038261246d565b6040519182916020830190602084525180915260408301919060005b8181106116e8575050500390f35b82518452859450602093840193909201916001016116da565b82548452602090930192600192830192016116a8565b34610279576000366003190112610279576020600b54604051908152f35b346102795760403660031901126102795760a060406117526124f3565b600435600052600460205281600020600091600180861b031682526020522060ff6001820154918160028201541660056004830154920154918383169160405195865261179e81612537565b602086015260408501526117b181612537565b606084015260081c1615156080820152f35b3461027957600036600319011261027957602060ff600154166040519015158152f35b34610279576020366003190112610279576001600160a01b036118076124dd565b16600052600760205260606040600020600181015490600360028201549101549060405192835260208301526040820152f35b34610279576020366003190112610279576004356118566126c6565b61185e612774565b80600052600960205261187860ff604060002054166125d1565b806000526003602052604060002090600d8201805460ff8116600681101561073b5760016118a69114612616565b60078401544210611acc5760081c60ff16611a94576009830154600a8401546118dd6118d28284612658565b600b87015490612658565b6003860154600887015490818102918183041490151715610d2e57612710900411159182611a8a575b505015611a7057805460ff1916600217815560048301546001600160a01b031680151580611a5b575b611940575b5050611017915061289e565b604051600585018054600091611955826123b0565b9160018116908115611a435750600114611a0d575b50509484936000807f948f4a9cd986f1118c3fbd459f7a22b23c0693e1ca3ef06a6a8be5aa7d39cc039585826020976110179c03925af1913d15611a0757823d6119b381612541565b906119c1604051928361246d565b81526000863d92013e5b6119e2575b50506040519015158152a28280611934565b61010061ff0019835416178255600e42910155600460ff1982541617905586806119d0565b826119cb565b90915060005260206000206000905b828210611a2f575050810183600061196a565b600181602092548487015201910190611a1c565b60ff191685525050801515028201905083600061196a565b50611a6960058501546123b0565b151561192f565b805460ff19166003179055611a85915061289e565b611017565b1190508480611906565b60405162461bcd60e51b815260206004820152601060248201526f105b1c9958591e48195e1958dd5d195960821b6044820152606490fd5b60405162461bcd60e51b8152602060048201526013602482015272566f74696e67207374696c6c2061637469766560681b6044820152606490fd5b3461027957602036600319011261027957600435806000526009602052611b3560ff604060002054166125d1565b600052600560205260406000206040518060208354918281520190819360005260206000209060005b818110611bc05750505081611b7491038261246d565b6040519182916020830190602084525180915260408301919060005b818110611b9e575050500390f35b82516001600160a01b0316845285945060209384019390920191600101611b90565b82546001600160a01b0316845260209093019260019283019201611b5e565b3461027957600036600319011261027957611bf86126e6565b60015460ff811615611c375760ff19166001557f5db9ee0a495bf2e6ff9c91a7834c1ba4fdd244a5e8aa4e537bd38aeae4b073aa6020604051338152a1005b638dfc202b60e01b60005260046000fd5b3461027957604036600319011261027957611c616124f3565b336001600160a01b03821603611c7d5761118d9060043561281c565b63334bd91960e11b60005260046000fd5b346102795760403660031901126102795761118d600435611cad6124f3565b90611cc961118382600052600060205260016040600020015490565b612791565b34610279576020366003190112610279576001600160a01b03611cef6124dd565b16600052600760205260a06040600020600180831b0381541690600181015490600281015460046003830154920154926040519485526020850152604084015260608301526080820152f35b34610279576000366003190112610279576020604051670de0b6b3a76400008152f35b3461027957602036600319011261027957600435611d7a6126c6565b611d82612774565b60008181526004602090815260408083203384529091529020600181015491908215611e9d576005018054600160ff8216611dbc81612537565b03611e635760ff8160081c16611e2a576101029061ffff1916179055336000526006602052600160406000200180548015610d2e576000190190556040519182527f459d5aef2c549903c1eeb1736f5728845d5ccf82537ddd5bf8035795eee8926360203393a36001600255005b60405162461bcd60e51b815260206004820152601160248201527020b63932b0b23c903bb4ba34323930bbb760791b6044820152606490fd5b60405162461bcd60e51b815260206004820152601260248201527114dd185ad9481b9bdd081d5b9b1bd8dad95960721b6044820152606490fd5b60405162461bcd60e51b815260206004820152600e60248201526d139bc81cdd185ad948199bdd5b9960921b6044820152606490fd5b34610279576020366003190112610279576020611f00600435600052600060205260016040600020015490565b604051908152f35b346102795760003660031901126102795760206040516203f4808152f35b3461027957604036600319011261027957611f3f6124dd565b6001600160a01b031660009081526008602052604090208054602435919082101561027957602091611f7091612509565b90549060031b1c604051908152f35b34610279576020366003190112610279576004356000526009602052602060ff604060002054166040519015158152f35b3461027957606036600319011261027957611fc96124dd565b611fd16124f3565b9060443591611fde6126c6565b3360009081527f5b444936b1af04ffee1fe3046e0c1ce51d425198d231b995f86357e304f12208602052604090205460ff16156121b95761201d612774565b6001600160a01b03169182156121805780159161203a8315612594565b6001600160a01b031660008181526007602052604090206003810180549294929084821061213b57848203918211610d2e575560044291015582156000146120de5781846000926120d4575b600092839283928392f1156120c85760207ff05181a0cbf006dbcce7572c98d4e5c1a007f19ba007bb40eaeae75fd419baf8915b604051908152a36001600255005b6040513d6000823e3d90fd5b6108fc9250612086565b5060207ff05181a0cbf006dbcce7572c98d4e5c1a007f19ba007bb40eaeae75fd419baf89161213660405163a9059cbb60e01b848201528660248201528260448201526044815261213060648261246d565b85612a94565b6120ba565b60405162461bcd60e51b815260206004820152601b60248201527f496e73756666696369656e742074726561737572792066756e647300000000006044820152606490fd5b60405162461bcd60e51b8152602060048201526011602482015270125b9d985b1a59081c9958da5c1a595b9d607a1b6044820152606490fd5b63e2517d3f60e01b600052336004527fede9dcdb0ce99dc7cec9c7be9246ad08b37853683ad91569c187b647ddf5e21c60245260446000fd5b34610279576000366003190112610279576020600a54604051908152f35b346102795760203660031901126102795760043563ffffffff60e01b811680910361027957602090637965db0b60e01b8114908115612255575b506040519015158152f35b6301ffc9a760e01b1490508261224a565b34610279576020366003190112610279576004356000908152600360205260409020805460018201546001600160a01b031691836122a781600284016123ea565b036122b2908561246d565b60038101546004820154604051939192916001600160a01b0390911690846122dd81600586016123ea565b036122e8908661246d565b60068301549460078401546008850154600986015491600a87015493600b88015495600c89015497600d8a015499600e01549a6040519e8f9e8f948552602085015260408401610200905261020084016123419161248f565b926060015260808d01528b810360a08d015261235c9161248f565b9860c08b015260e08a01526101008901526101208801526101408701526101608601526101808501526101a0840160ff821690612398916124d0565b60081c60ff1615156101c08401526101e08301520390f35b90600182811c921680156123e0575b60208310146123ca57565b634e487b7160e01b600052602260045260246000fd5b91607f16916123bf565b600092918154916123fa836123b0565b8083529260018116908115612450575060011461241657505050565b60009081526020812093945091925b838310612436575060209250010190565b600181602092949394548385870101520191019190612425565b915050602093945060ff929192191683830152151560051b010190565b90601f8019910116810190811067ffffffffffffffff8211176107c357604052565b919082519283825260005b8481106124bb575050826000602080949584010152601f8019910116010190565b8060208092840101518282860101520161249a565b90600682101561073b5752565b600435906001600160a01b038216820361027957565b602435906001600160a01b038216820361027957565b80548210156125215760005260206000200190600090565b634e487b7160e01b600052603260045260246000fd5b6003111561073b57565b67ffffffffffffffff81116107c357601f01601f191660200190565b92919261256982612541565b91612577604051938461246d565b829481845281830111610279578281602093846000960137010152565b1561259b57565b60405162461bcd60e51b815260206004820152600e60248201526d125b9d985b1a5908185b5bdd5b9d60921b6044820152606490fd5b156125d857565b60405162461bcd60e51b8152602060048201526016602482015275141c9bdc1bdcd85b08191bd95cdb89dd08195e1a5cdd60521b6044820152606490fd5b1561261d57565b60405162461bcd60e51b815260206004820152601360248201527250726f706f73616c206e6f742061637469766560681b6044820152606490fd5b91908201809211610d2e57565b6000198114610d2e5760010190565b601f821161268157505050565b6000526020600020906020601f840160051c830193106126bc575b601f0160051c01905b8181106126b0575050565b600081556001016126a5565b909150819061269c565b60028054146126d55760028055565b633ee5aeb560e01b60005260046000fd5b3360009081527fad3228b676f7d3cd4284a5443f17f1962b36e491b30a40b2405849e597ba5fb5602052604090205460ff161561271f57565b63e2517d3f60e01b60005233600452600060245260446000fd5b60008181526020818152604080832033845290915290205460ff161561275c5750565b63e2517d3f60e01b6000523360045260245260446000fd5b60ff6001541661278057565b63d93c066560e01b60005260046000fd5b6000818152602081815260408083206001600160a01b038616845290915290205460ff16612815576000818152602081815260408083206001600160a01b0395909516808452949091528120805460ff19166001179055339291907f2f8788117e7eff1d82e926ec794901d17c78024a50270940304540a733656f0d9080a4600190565b5050600090565b6000818152602081815260408083206001600160a01b038616845290915290205460ff1615612815576000818152602081815260408083206001600160a01b0395909516808452949091528120805460ff19169055339291907ff6391f5c32d9c69d2a47ea670b442974b53935d1edc7fd64eb21e047a839171b9080a4600190565b80600052600560205260406000206040518082602082945493848152019060005260206000209260005b8181106129a35750506128dd9250038261246d565b60005b815181101561299e57600190600084838060a01b0360208460051b870101511691818152600460205260408120858060a01b03841682526020526040812090600582019182549060ff821661293481612537565b1580612992575b61294c575b505050505050016128e0565b60ff199091168717909255508401546040519081527f73bc5fa3bc875eec87f8aaaa613d7fa2090fca0d035a327bb01226b91de9190f90602090a3388481808080612940565b5087810154151561293b565b505050565b84546001600160a01b03168352600194850194869450602090930192016128c8565b6040516323b872dd60e01b60208201526001600160a01b039283166024820152929091166044830152606480830193909352918152612a0e91612a0960848361246d565b612a94565b565b6000805260076020527f6d5257204ebe7d88fd91ae87941cb2dd9d8062b64ae5a2bd2d28ec40b9fbf6df80546001600160a01b03191681557f6d5257204ebe7d88fd91ae87941cb2dd9d8062b64ae5a2bd2d28ec40b9fbf6e08054919291612a79908390612658565b9055612a8a60038301918254612658565b9055600442910155565b906000602091828151910182855af1156120c8576000513d612ae657506001600160a01b0381163b155b612ac55750565b635274afe760e01b60009081526001600160a01b0391909116600452602490fd5b60011415612abe56fea264697066735822122004fba2dda59c000b93ac677576d7a4e66476ab459166e909128524621551dc5d64736f6c634300081c0033",
  "linkReferences": {},
  "deployedLinkReferences": {},
  "immutableReferences": {},
  "inputSourceName": "project/contracts/Voting.sol",
  "buildInfoId": "solc-0_8_28-da22c518729d73371a005336a2da6fd9527f4f7e"
}